{
  "_format": "hh-sol-artifact-1",
  "contractName": "AdminManager",
  "sourceName": "contracts/AdminManager.sol",
  "abi": [
    {
      "anonymous": false,
      "inputs": [
        {
          "indexed": false,
          "internalType": "uint8",
          "name": "version",
          "type": "uint8"
        }
      ],
      "name": "Initialized",
      "type": "event"
    },
    {
      "anonymous": false,
      "inputs": [
        {
          "indexed": true,
          "internalType": "address",
          "name": "previousOwner",
          "type": "address"
        },
        {
          "indexed": true,
          "internalType": "address",
          "name": "newOwner",
          "type": "address"
        }
      ],
      "name": "OwnershipTransferred",
      "type": "event"
    },
    {
      "anonymous": false,
      "inputs": [
        {
          "indexed": true,
          "internalType": "bytes32",
          "name": "role",
          "type": "bytes32"
        },
        {
          "indexed": true,
          "internalType": "bytes32",
          "name": "previousAdminRole",
          "type": "bytes32"
        },
        {
          "indexed": true,
          "internalType": "bytes32",
          "name": "newAdminRole",
          "type": "bytes32"
        }
      ],
      "name": "RoleAdminChanged",
      "type": "event"
    },
    {
      "anonymous": false,
      "inputs": [
        {
          "indexed": true,
          "internalType": "bytes32",
          "name": "role",
          "type": "bytes32"
        },
        {
          "indexed": true,
          "internalType": "address",
          "name": "account",
          "type": "address"
        },
        {
          "indexed": true,
          "internalType": "address",
          "name": "sender",
          "type": "address"
        }
      ],
      "name": "RoleGranted",
      "type": "event"
    },
    {
      "anonymous": false,
      "inputs": [
        {
          "indexed": true,
          "internalType": "bytes32",
          "name": "role",
          "type": "bytes32"
        },
        {
          "indexed": true,
          "internalType": "address",
          "name": "account",
          "type": "address"
        },
        {
          "indexed": true,
          "internalType": "address",
          "name": "sender",
          "type": "address"
        }
      ],
      "name": "RoleRevoked",
      "type": "event"
    },
    {
      "inputs": [],
      "name": "DEFAULT_ADMIN_ROLE",
      "outputs": [
        {
          "internalType": "bytes32",
          "name": "",
          "type": "bytes32"
        }
      ],
      "stateMutability": "view",
      "type": "function"
    },
    {
      "inputs": [],
      "name": "OTTM_ADMIN_ROLE",
      "outputs": [
        {
          "internalType": "bytes32",
          "name": "",
          "type": "bytes32"
        }
      ],
      "stateMutability": "view",
      "type": "function"
    },
    {
      "inputs": [
        {
          "internalType": "bytes32",
          "name": "role",
          "type": "bytes32"
        }
      ],
      "name": "getRoleAdmin",
      "outputs": [
        {
          "internalType": "bytes32",
          "name": "",
          "type": "bytes32"
        }
      ],
      "stateMutability": "view",
      "type": "function"
    },
    {
      "inputs": [
        {
          "internalType": "bytes32",
          "name": "role",
          "type": "bytes32"
        },
        {
          "internalType": "uint256",
          "name": "index",
          "type": "uint256"
        }
      ],
      "name": "getRoleMember",
      "outputs": [
        {
          "internalType": "address",
          "name": "",
          "type": "address"
        }
      ],
      "stateMutability": "view",
      "type": "function"
    },
    {
      "inputs": [
        {
          "internalType": "bytes32",
          "name": "role",
          "type": "bytes32"
        }
      ],
      "name": "getRoleMemberCount",
      "outputs": [
        {
          "internalType": "uint256",
          "name": "",
          "type": "uint256"
        }
      ],
      "stateMutability": "view",
      "type": "function"
    },
    {
      "inputs": [
        {
          "internalType": "bytes32",
          "name": "role",
          "type": "bytes32"
        }
      ],
      "name": "getRoleMembers",
      "outputs": [
        {
          "internalType": "address[]",
          "name": "",
          "type": "address[]"
        }
      ],
      "stateMutability": "view",
      "type": "function"
    },
    {
      "inputs": [
        {
          "internalType": "bytes32",
          "name": "role",
          "type": "bytes32"
        },
        {
          "internalType": "address",
          "name": "account",
          "type": "address"
        }
      ],
      "name": "grantRole",
      "outputs": [],
      "stateMutability": "nonpayable",
      "type": "function"
    },
    {
      "inputs": [
        {
          "internalType": "bytes32",
          "name": "role",
          "type": "bytes32"
        },
        {
          "internalType": "address",
          "name": "account",
          "type": "address"
        }
      ],
      "name": "hasRole",
      "outputs": [
        {
          "internalType": "bool",
          "name": "",
          "type": "bool"
        }
      ],
      "stateMutability": "view",
      "type": "function"
    },
    {
      "inputs": [],
      "name": "isContractAdmin",
      "outputs": [
        {
          "internalType": "bool",
          "name": "",
          "type": "bool"
        }
      ],
      "stateMutability": "view",
      "type": "function"
    },
    {
      "inputs": [
        {
          "internalType": "address",
          "name": "account",
          "type": "address"
        }
      ],
      "name": "isContractAdmin",
      "outputs": [
        {
          "internalType": "bool",
          "name": "",
          "type": "bool"
        }
      ],
      "stateMutability": "view",
      "type": "function"
    },
    {
      "inputs": [],
      "name": "owner",
      "outputs": [
        {
          "internalType": "address",
          "name": "",
          "type": "address"
        }
      ],
      "stateMutability": "view",
      "type": "function"
    },
    {
      "inputs": [],
      "name": "renounceOwnership",
      "outputs": [],
      "stateMutability": "nonpayable",
      "type": "function"
    },
    {
      "inputs": [
        {
          "internalType": "bytes32",
          "name": "role",
          "type": "bytes32"
        },
        {
          "internalType": "address",
          "name": "account",
          "type": "address"
        }
      ],
      "name": "renounceRole",
      "outputs": [],
      "stateMutability": "nonpayable",
      "type": "function"
    },
    {
      "inputs": [
        {
          "internalType": "bytes32",
          "name": "role",
          "type": "bytes32"
        },
        {
          "internalType": "address",
          "name": "account",
          "type": "address"
        }
      ],
      "name": "revokeRole",
      "outputs": [],
      "stateMutability": "nonpayable",
      "type": "function"
    },
    {
      "inputs": [
        {
          "internalType": "bytes4",
          "name": "interfaceId",
          "type": "bytes4"
        }
      ],
      "name": "supportsInterface",
      "outputs": [
        {
          "internalType": "bool",
          "name": "",
          "type": "bool"
        }
      ],
      "stateMutability": "view",
      "type": "function"
    },
    {
      "inputs": [
        {
          "internalType": "address",
          "name": "newOwner",
          "type": "address"
        }
      ],
      "name": "transferOwnership",
      "outputs": [],
      "stateMutability": "nonpayable",
      "type": "function"
    },
    {
      "inputs": [
        {
          "internalType": "bytes32",
          "name": "role",
          "type": "bytes32"
        },
        {
          "internalType": "address",
          "name": "account",
          "type": "address"
        }
      ],
      "name": "transferRole",
      "outputs": [],
      "stateMutability": "nonpayable",
      "type": "function"
    }
  ],
  "bytecode": "0x608060405234801561001057600080fd5b50610ee8806100206000396000f3fe608060405234801561001057600080fd5b506004361061010b5760003560e01c80639ee12c89116100a2578063d3184e8011610071578063d3184e8014610232578063d547741f1461023a578063f2fde38b1461024d578063f346dc8714610260578063fc81a12a1461028757600080fd5b80639ee12c89146101e4578063a217fddf146101f7578063a3246ad3146101ff578063ca15c8731461021f57600080fd5b8063715018a6116100de578063715018a6146101915780638da5cb5b146101995780639010d07c146101be57806391d14854146101d157600080fd5b806301ffc9a714610110578063248a9ca3146101385780632f2ff15d1461016957806336568abe1461017e575b600080fd5b61012361011e366004610c0c565b61029a565b60405190151581526020015b60405180910390f35b61015b610146366004610c36565b60009081526065602052604090206001015490565b60405190815260200161012f565b61017c610177366004610c6b565b6102c5565b005b61017c61018c366004610c6b565b6102ef565b61017c610372565b60c9546001600160a01b03165b6040516001600160a01b03909116815260200161012f565b6101a66101cc366004610c97565b610386565b6101236101df366004610c6b565b6103a5565b61017c6101f2366004610c6b565b6103d0565b61015b600081565b61021261020d366004610c36565b61045a565b60405161012f9190610cb9565b61015b61022d366004610c36565b610509565b610123610520565b61017c610248366004610c6b565b610530565b61017c61025b366004610d06565b610555565b61015b7f3e56e9a6f888cc93e5cca7cc0196dca8b71b670e9b1090643c8d42bed8a5d80081565b610123610295366004610d06565b6105ce565b60006001600160e01b03198216635a05180f60e01b14806102bf57506102bf8261063d565b92915050565b6000828152606560205260409020600101546102e081610672565b6102ea838361067c565b505050565b6001600160a01b03811633146103645760405162461bcd60e51b815260206004820152602f60248201527f416363657373436f6e74726f6c3a2063616e206f6e6c792072656e6f756e636560448201526e103937b632b9903337b91039b2b63360891b60648201526084015b60405180910390fd5b61036e828261069e565b5050565b61037a6106c0565b610384600061071a565b565b600082815260976020526040812061039e908361076c565b9392505050565b60009182526065602090815260408084206001600160a01b0393909316845291905290205460ff1690565b816103da81610672565b6001600160a01b03821633036104465760405162461bcd60e51b815260206004820152602b60248201527f4163636f756e74206d757374206e6f7420626520657175616c206173206d657360448201526a39b0b3b29039b2b73232b960a91b606482015260840161035b565b610450838361067c565b6102ea833361069e565b6060600061046783610509565b905060008167ffffffffffffffff81111561048457610484610d21565b6040519080825280602002602001820160405280156104ad578160200160208202803683370190505b50905060005b82811015610501576104c58582610386565b8282815181106104d7576104d7610d37565b6001600160a01b0390921660209283029190910190910152806104f981610d63565b9150506104b3565b509392505050565b60008181526097602052604081206102bf90610778565b600061052b336105ce565b905090565b60008281526065602052604090206001015461054b81610672565b6102ea838361069e565b61055d6106c0565b6001600160a01b0381166105c25760405162461bcd60e51b815260206004820152602660248201527f4f776e61626c653a206e6577206f776e657220697320746865207a65726f206160448201526564647265737360d01b606482015260840161035b565b6105cb8161071a565b50565b60006105fa7f3e56e9a6f888cc93e5cca7cc0196dca8b71b670e9b1090643c8d42bed8a5d800836103a5565b8061060b575061060b6000836103a5565b806102bf5750816001600160a01b031661062d60c9546001600160a01b031690565b6001600160a01b03161492915050565b60006001600160e01b03198216637965db0b60e01b14806102bf57506301ffc9a760e01b6001600160e01b03198316146102bf565b6105cb8133610782565b61068682826107db565b60008281526097602052604090206102ea9082610861565b6106a88282610876565b60008281526097602052604090206102ea90826108dd565b60c9546001600160a01b031633146103845760405162461bcd60e51b815260206004820181905260248201527f4f776e61626c653a2063616c6c6572206973206e6f7420746865206f776e6572604482015260640161035b565b60c980546001600160a01b038381166001600160a01b0319831681179093556040519116919082907f8be0079c531659141344cd1fd0a4f28419497f9722a3daafe3b4186f6b6457e090600090a35050565b600061039e83836108f2565b60006102bf825490565b61078c82826103a5565b61036e576107998161091c565b6107a483602061092e565b6040516020016107b5929190610da0565b60408051601f198184030181529082905262461bcd60e51b825261035b91600401610e15565b6107e582826103a5565b61036e5760008281526065602090815260408083206001600160a01b03851684529091529020805460ff1916600117905561081d3390565b6001600160a01b0316816001600160a01b0316837f2f8788117e7eff1d82e926ec794901d17c78024a50270940304540a733656f0d60405160405180910390a45050565b600061039e836001600160a01b038416610aca565b61088082826103a5565b1561036e5760008281526065602090815260408083206001600160a01b0385168085529252808320805460ff1916905551339285917ff6391f5c32d9c69d2a47ea670b442974b53935d1edc7fd64eb21e047a839171b9190a45050565b600061039e836001600160a01b038416610b19565b600082600001828154811061090957610909610d37565b9060005260206000200154905092915050565b60606102bf6001600160a01b03831660145b6060600061093d836002610e48565b610948906002610e5f565b67ffffffffffffffff81111561096057610960610d21565b6040519080825280601f01601f19166020018201604052801561098a576020820181803683370190505b509050600360fc1b816000815181106109a5576109a5610d37565b60200101906001600160f81b031916908160001a905350600f60fb1b816001815181106109d4576109d4610d37565b60200101906001600160f81b031916908160001a90535060006109f8846002610e48565b610a03906001610e5f565b90505b6001811115610a7b576f181899199a1a9b1b9c1cb0b131b232b360811b85600f1660108110610a3757610a37610d37565b1a60f81b828281518110610a4d57610a4d610d37565b60200101906001600160f81b031916908160001a90535060049490941c93610a7481610e72565b9050610a06565b50831561039e5760405162461bcd60e51b815260206004820181905260248201527f537472696e67733a20686578206c656e67746820696e73756666696369656e74604482015260640161035b565b6000818152600183016020526040812054610b11575081546001818101845560008481526020808220909301849055845484825282860190935260409020919091556102bf565b5060006102bf565b60008181526001830160205260408120548015610c02576000610b3d600183610e89565b8554909150600090610b5190600190610e89565b9050818114610bb6576000866000018281548110610b7157610b71610d37565b9060005260206000200154905080876000018481548110610b9457610b94610d37565b6000918252602080832090910192909255918252600188019052604090208390555b8554869080610bc757610bc7610e9c565b6001900381819060005260206000200160009055905585600101600086815260200190815260200160002060009055600193505050506102bf565b60009150506102bf565b600060208284031215610c1e57600080fd5b81356001600160e01b03198116811461039e57600080fd5b600060208284031215610c4857600080fd5b5035919050565b80356001600160a01b0381168114610c6657600080fd5b919050565b60008060408385031215610c7e57600080fd5b82359150610c8e60208401610c4f565b90509250929050565b60008060408385031215610caa57600080fd5b50508035926020909101359150565b6020808252825182820181905260009190848201906040850190845b81811015610cfa5783516001600160a01b031683529284019291840191600101610cd5565b50909695505050505050565b600060208284031215610d1857600080fd5b61039e82610c4f565b634e487b7160e01b600052604160045260246000fd5b634e487b7160e01b600052603260045260246000fd5b634e487b7160e01b600052601160045260246000fd5b600060018201610d7557610d75610d4d565b5060010190565b60005b83811015610d97578181015183820152602001610d7f565b50506000910152565b7f416363657373436f6e74726f6c3a206163636f756e7420000000000000000000815260008351610dd8816017850160208801610d7c565b7001034b99036b4b9b9b4b733903937b6329607d1b6017918401918201528351610e09816028840160208801610d7c565b01602801949350505050565b6020815260008251806020840152610e34816040850160208701610d7c565b601f01601f19169190910160400192915050565b80820281158282048414176102bf576102bf610d4d565b808201808211156102bf576102bf610d4d565b600081610e8157610e81610d4d565b506000190190565b818103818111156102bf576102bf610d4d565b634e487b7160e01b600052603160045260246000fdfea2646970667358221220764d9cb23007d152863256964c804d5c1adcdfdd3238134f076e10b76589d1d464736f6c63430008140033",
  "linkReferences": {},
  "deployedLinkReferences": {}
}