{
  "_format": "hh-sol-artifact-1",
  "contractName": "Pop",
  "sourceName": "contracts/Pop.sol",
  "abi": [
    {
      "anonymous": false,
      "inputs": [
        {
          "indexed": true,
          "internalType": "address",
          "name": "admin",
          "type": "address"
        },
        {
          "indexed": false,
          "internalType": "string",
          "name": "reason",
          "type": "string"
        }
      ],
      "name": "AdminActionPerformed",
      "type": "event"
    },
    {
      "anonymous": false,
      "inputs": [
        {
          "indexed": false,
          "internalType": "address",
          "name": "previousAdmin",
          "type": "address"
        },
        {
          "indexed": false,
          "internalType": "address",
          "name": "newAdmin",
          "type": "address"
        }
      ],
      "name": "AdminChanged",
      "type": "event"
    },
    {
      "anonymous": false,
      "inputs": [
        {
          "indexed": true,
          "internalType": "address",
          "name": "account",
          "type": "address"
        },
        {
          "indexed": true,
          "internalType": "address",
          "name": "operator",
          "type": "address"
        },
        {
          "indexed": false,
          "internalType": "bool",
          "name": "approved",
          "type": "bool"
        }
      ],
      "name": "ApprovalForAll",
      "type": "event"
    },
    {
      "anonymous": false,
      "inputs": [
        {
          "indexed": true,
          "internalType": "uint256",
          "name": "badgeId",
          "type": "uint256"
        },
        {
          "indexed": true,
          "internalType": "address",
          "name": "from",
          "type": "address"
        },
        {
          "indexed": true,
          "internalType": "address",
          "name": "burner",
          "type": "address"
        }
      ],
      "name": "BadgeBurned",
      "type": "event"
    },
    {
      "anonymous": false,
      "inputs": [
        {
          "indexed": true,
          "internalType": "uint256",
          "name": "badgeId",
          "type": "uint256"
        },
        {
          "indexed": true,
          "internalType": "address",
          "name": "to",
          "type": "address"
        },
        {
          "indexed": true,
          "internalType": "address",
          "name": "minter",
          "type": "address"
        }
      ],
      "name": "BadgeMinted",
      "type": "event"
    },
    {
      "anonymous": false,
      "inputs": [
        {
          "indexed": true,
          "internalType": "address",
          "name": "beacon",
          "type": "address"
        }
      ],
      "name": "BeaconUpgraded",
      "type": "event"
    },
    {
      "anonymous": false,
      "inputs": [
        {
          "indexed": false,
          "internalType": "uint8",
          "name": "version",
          "type": "uint8"
        }
      ],
      "name": "Initialized",
      "type": "event"
    },
    {
      "anonymous": false,
      "inputs": [
        {
          "indexed": true,
          "internalType": "address",
          "name": "previousOwner",
          "type": "address"
        },
        {
          "indexed": true,
          "internalType": "address",
          "name": "newOwner",
          "type": "address"
        }
      ],
      "name": "OwnershipTransferred",
      "type": "event"
    },
    {
      "anonymous": false,
      "inputs": [
        {
          "indexed": false,
          "internalType": "address",
          "name": "account",
          "type": "address"
        }
      ],
      "name": "Paused",
      "type": "event"
    },
    {
      "anonymous": false,
      "inputs": [
        {
          "indexed": true,
          "internalType": "bytes32",
          "name": "role",
          "type": "bytes32"
        },
        {
          "indexed": true,
          "internalType": "bytes32",
          "name": "previousAdminRole",
          "type": "bytes32"
        },
        {
          "indexed": true,
          "internalType": "bytes32",
          "name": "newAdminRole",
          "type": "bytes32"
        }
      ],
      "name": "RoleAdminChanged",
      "type": "event"
    },
    {
      "anonymous": false,
      "inputs": [
        {
          "indexed": true,
          "internalType": "bytes32",
          "name": "role",
          "type": "bytes32"
        },
        {
          "indexed": true,
          "internalType": "address",
          "name": "account",
          "type": "address"
        },
        {
          "indexed": true,
          "internalType": "address",
          "name": "sender",
          "type": "address"
        }
      ],
      "name": "RoleGranted",
      "type": "event"
    },
    {
      "anonymous": false,
      "inputs": [
        {
          "indexed": true,
          "internalType": "bytes32",
          "name": "role",
          "type": "bytes32"
        },
        {
          "indexed": true,
          "internalType": "address",
          "name": "account",
          "type": "address"
        },
        {
          "indexed": true,
          "internalType": "address",
          "name": "sender",
          "type": "address"
        }
      ],
      "name": "RoleRevoked",
      "type": "event"
    },
    {
      "anonymous": false,
      "inputs": [
        {
          "indexed": true,
          "internalType": "address",
          "name": "operator",
          "type": "address"
        },
        {
          "indexed": true,
          "internalType": "address",
          "name": "from",
          "type": "address"
        },
        {
          "indexed": true,
          "internalType": "address",
          "name": "to",
          "type": "address"
        },
        {
          "indexed": false,
          "internalType": "uint256[]",
          "name": "ids",
          "type": "uint256[]"
        },
        {
          "indexed": false,
          "internalType": "uint256[]",
          "name": "values",
          "type": "uint256[]"
        }
      ],
      "name": "TransferBatch",
      "type": "event"
    },
    {
      "anonymous": false,
      "inputs": [
        {
          "indexed": true,
          "internalType": "address",
          "name": "operator",
          "type": "address"
        },
        {
          "indexed": true,
          "internalType": "address",
          "name": "from",
          "type": "address"
        },
        {
          "indexed": true,
          "internalType": "address",
          "name": "to",
          "type": "address"
        },
        {
          "indexed": false,
          "internalType": "uint256",
          "name": "id",
          "type": "uint256"
        },
        {
          "indexed": false,
          "internalType": "uint256",
          "name": "value",
          "type": "uint256"
        }
      ],
      "name": "TransferSingle",
      "type": "event"
    },
    {
      "anonymous": false,
      "inputs": [
        {
          "indexed": false,
          "internalType": "string",
          "name": "value",
          "type": "string"
        },
        {
          "indexed": true,
          "internalType": "uint256",
          "name": "id",
          "type": "uint256"
        }
      ],
      "name": "URI",
      "type": "event"
    },
    {
      "anonymous": false,
      "inputs": [
        {
          "indexed": false,
          "internalType": "address",
          "name": "account",
          "type": "address"
        }
      ],
      "name": "Unpaused",
      "type": "event"
    },
    {
      "anonymous": false,
      "inputs": [
        {
          "indexed": true,
          "internalType": "address",
          "name": "implementation",
          "type": "address"
        }
      ],
      "name": "Upgraded",
      "type": "event"
    },
    {
      "stateMutability": "payable",
      "type": "fallback"
    },
    {
      "inputs": [],
      "name": "DEFAULT_ADMIN_ROLE",
      "outputs": [
        {
          "internalType": "bytes32",
          "name": "",
          "type": "bytes32"
        }
      ],
      "stateMutability": "view",
      "type": "function"
    },
    {
      "inputs": [],
      "name": "OTTM_ADMIN_ROLE",
      "outputs": [
        {
          "internalType": "bytes32",
          "name": "",
          "type": "bytes32"
        }
      ],
      "stateMutability": "view",
      "type": "function"
    },
    {
      "inputs": [
        {
          "internalType": "address",
          "name": "account",
          "type": "address"
        },
        {
          "internalType": "uint256",
          "name": "id",
          "type": "uint256"
        }
      ],
      "name": "balanceOf",
      "outputs": [
        {
          "internalType": "uint256",
          "name": "",
          "type": "uint256"
        }
      ],
      "stateMutability": "view",
      "type": "function"
    },
    {
      "inputs": [
        {
          "internalType": "address[]",
          "name": "accounts",
          "type": "address[]"
        },
        {
          "internalType": "uint256[]",
          "name": "ids",
          "type": "uint256[]"
        }
      ],
      "name": "balanceOfBatch",
      "outputs": [
        {
          "internalType": "uint256[]",
          "name": "",
          "type": "uint256[]"
        }
      ],
      "stateMutability": "view",
      "type": "function"
    },
    {
      "inputs": [],
      "name": "burnCount",
      "outputs": [
        {
          "internalType": "uint256",
          "name": "",
          "type": "uint256"
        }
      ],
      "stateMutability": "view",
      "type": "function"
    },
    {
      "inputs": [
        {
          "internalType": "address",
          "name": "account",
          "type": "address"
        },
        {
          "internalType": "uint256",
          "name": "id",
          "type": "uint256"
        },
        {
          "internalType": "uint256",
          "name": "value",
          "type": "uint256"
        },
        {
          "internalType": "string",
          "name": "reason",
          "type": "string"
        }
      ],
      "name": "burnWithAdminAuthority",
      "outputs": [],
      "stateMutability": "nonpayable",
      "type": "function"
    },
    {
      "inputs": [
        {
          "internalType": "address",
          "name": "account",
          "type": "address"
        },
        {
          "internalType": "uint256[]",
          "name": "ids",
          "type": "uint256[]"
        },
        {
          "internalType": "uint256[]",
          "name": "values",
          "type": "uint256[]"
        },
        {
          "internalType": "string",
          "name": "reason",
          "type": "string"
        }
      ],
      "name": "burnWithAdminAuthority",
      "outputs": [],
      "stateMutability": "nonpayable",
      "type": "function"
    },
    {
      "inputs": [
        {
          "internalType": "bytes",
          "name": "approvalSignature",
          "type": "bytes"
        },
        {
          "internalType": "uint256",
          "name": "badgeId",
          "type": "uint256"
        },
        {
          "internalType": "address",
          "name": "paymentTokenAddress",
          "type": "address"
        },
        {
          "internalType": "uint256",
          "name": "paymentTokenAmount",
          "type": "uint256"
        },
        {
          "internalType": "uint256",
          "name": "approvalSignatureCreationTime",
          "type": "uint256"
        }
      ],
      "name": "claimBadge",
      "outputs": [],
      "stateMutability": "payable",
      "type": "function"
    },
    {
      "inputs": [],
      "name": "contractURI",
      "outputs": [
        {
          "internalType": "string",
          "name": "",
          "type": "string"
        }
      ],
      "stateMutability": "view",
      "type": "function"
    },
    {
      "inputs": [
        {
          "internalType": "uint256",
          "name": "id",
          "type": "uint256"
        }
      ],
      "name": "exists",
      "outputs": [
        {
          "internalType": "bool",
          "name": "",
          "type": "bool"
        }
      ],
      "stateMutability": "view",
      "type": "function"
    },
    {
      "inputs": [],
      "name": "getBaseURI",
      "outputs": [
        {
          "internalType": "string",
          "name": "",
          "type": "string"
        }
      ],
      "stateMutability": "view",
      "type": "function"
    },
    {
      "inputs": [
        {
          "internalType": "bytes32",
          "name": "role",
          "type": "bytes32"
        }
      ],
      "name": "getRoleAdmin",
      "outputs": [
        {
          "internalType": "bytes32",
          "name": "",
          "type": "bytes32"
        }
      ],
      "stateMutability": "view",
      "type": "function"
    },
    {
      "inputs": [
        {
          "internalType": "bytes32",
          "name": "role",
          "type": "bytes32"
        },
        {
          "internalType": "uint256",
          "name": "index",
          "type": "uint256"
        }
      ],
      "name": "getRoleMember",
      "outputs": [
        {
          "internalType": "address",
          "name": "",
          "type": "address"
        }
      ],
      "stateMutability": "view",
      "type": "function"
    },
    {
      "inputs": [
        {
          "internalType": "bytes32",
          "name": "role",
          "type": "bytes32"
        }
      ],
      "name": "getRoleMemberCount",
      "outputs": [
        {
          "internalType": "uint256",
          "name": "",
          "type": "uint256"
        }
      ],
      "stateMutability": "view",
      "type": "function"
    },
    {
      "inputs": [
        {
          "internalType": "bytes32",
          "name": "role",
          "type": "bytes32"
        }
      ],
      "name": "getRoleMembers",
      "outputs": [
        {
          "internalType": "address[]",
          "name": "",
          "type": "address[]"
        }
      ],
      "stateMutability": "view",
      "type": "function"
    },
    {
      "inputs": [
        {
          "internalType": "bytes32",
          "name": "role",
          "type": "bytes32"
        },
        {
          "internalType": "address",
          "name": "account",
          "type": "address"
        }
      ],
      "name": "grantRole",
      "outputs": [],
      "stateMutability": "nonpayable",
      "type": "function"
    },
    {
      "inputs": [
        {
          "internalType": "bytes32",
          "name": "role",
          "type": "bytes32"
        },
        {
          "internalType": "address",
          "name": "account",
          "type": "address"
        }
      ],
      "name": "hasRole",
      "outputs": [
        {
          "internalType": "bool",
          "name": "",
          "type": "bool"
        }
      ],
      "stateMutability": "view",
      "type": "function"
    },
    {
      "inputs": [
        {
          "internalType": "string",
          "name": "baseURI",
          "type": "string"
        },
        {
          "internalType": "string",
          "name": "_contractURI",
          "type": "string"
        },
        {
          "internalType": "address[]",
          "name": "admins",
          "type": "address[]"
        }
      ],
      "name": "initialize",
      "outputs": [],
      "stateMutability": "nonpayable",
      "type": "function"
    },
    {
      "inputs": [
        {
          "internalType": "address",
          "name": "account",
          "type": "address"
        },
        {
          "internalType": "address",
          "name": "operator",
          "type": "address"
        }
      ],
      "name": "isApprovedForAll",
      "outputs": [
        {
          "internalType": "bool",
          "name": "",
          "type": "bool"
        }
      ],
      "stateMutability": "view",
      "type": "function"
    },
    {
      "inputs": [],
      "name": "isContractAdmin",
      "outputs": [
        {
          "internalType": "bool",
          "name": "",
          "type": "bool"
        }
      ],
      "stateMutability": "view",
      "type": "function"
    },
    {
      "inputs": [
        {
          "internalType": "address",
          "name": "account",
          "type": "address"
        }
      ],
      "name": "isContractAdmin",
      "outputs": [
        {
          "internalType": "bool",
          "name": "",
          "type": "bool"
        }
      ],
      "stateMutability": "view",
      "type": "function"
    },
    {
      "inputs": [
        {
          "internalType": "address",
          "name": "to",
          "type": "address"
        },
        {
          "internalType": "uint256",
          "name": "badgeId",
          "type": "uint256"
        },
        {
          "internalType": "bytes",
          "name": "data",
          "type": "bytes"
        }
      ],
      "name": "mintBadge",
      "outputs": [],
      "stateMutability": "nonpayable",
      "type": "function"
    },
    {
      "inputs": [
        {
          "internalType": "address[]",
          "name": "to",
          "type": "address[]"
        },
        {
          "internalType": "uint256",
          "name": "badgeId",
          "type": "uint256"
        },
        {
          "internalType": "bytes",
          "name": "data",
          "type": "bytes"
        }
      ],
      "name": "mintBadgeToManyUsers",
      "outputs": [],
      "stateMutability": "nonpayable",
      "type": "function"
    },
    {
      "inputs": [],
      "name": "mintCount",
      "outputs": [
        {
          "internalType": "uint256",
          "name": "",
          "type": "uint256"
        }
      ],
      "stateMutability": "view",
      "type": "function"
    },
    {
      "inputs": [
        {
          "internalType": "address[]",
          "name": "to",
          "type": "address[]"
        },
        {
          "internalType": "uint256[]",
          "name": "badgeIds",
          "type": "uint256[]"
        },
        {
          "internalType": "bytes",
          "name": "data",
          "type": "bytes"
        }
      ],
      "name": "mintManyBadgesToManyUsers",
      "outputs": [],
      "stateMutability": "nonpayable",
      "type": "function"
    },
    {
      "inputs": [
        {
          "internalType": "address",
          "name": "to",
          "type": "address"
        },
        {
          "internalType": "uint256[]",
          "name": "badgeIds",
          "type": "uint256[]"
        },
        {
          "internalType": "bytes",
          "name": "data",
          "type": "bytes"
        }
      ],
      "name": "mintManyBadgesToUser",
      "outputs": [],
      "stateMutability": "nonpayable",
      "type": "function"
    },
    {
      "inputs": [],
      "name": "owner",
      "outputs": [
        {
          "internalType": "address",
          "name": "",
          "type": "address"
        }
      ],
      "stateMutability": "view",
      "type": "function"
    },
    {
      "inputs": [],
      "name": "pause",
      "outputs": [],
      "stateMutability": "nonpayable",
      "type": "function"
    },
    {
      "inputs": [],
      "name": "paused",
      "outputs": [
        {
          "internalType": "bool",
          "name": "",
          "type": "bool"
        }
      ],
      "stateMutability": "view",
      "type": "function"
    },
    {
      "inputs": [],
      "name": "proxiableUUID",
      "outputs": [
        {
          "internalType": "bytes32",
          "name": "",
          "type": "bytes32"
        }
      ],
      "stateMutability": "view",
      "type": "function"
    },
    {
      "inputs": [],
      "name": "renounceOwnership",
      "outputs": [],
      "stateMutability": "nonpayable",
      "type": "function"
    },
    {
      "inputs": [
        {
          "internalType": "bytes32",
          "name": "role",
          "type": "bytes32"
        },
        {
          "internalType": "address",
          "name": "account",
          "type": "address"
        }
      ],
      "name": "renounceRole",
      "outputs": [],
      "stateMutability": "nonpayable",
      "type": "function"
    },
    {
      "inputs": [
        {
          "internalType": "bytes32",
          "name": "role",
          "type": "bytes32"
        },
        {
          "internalType": "address",
          "name": "account",
          "type": "address"
        }
      ],
      "name": "revokeRole",
      "outputs": [],
      "stateMutability": "nonpayable",
      "type": "function"
    },
    {
      "inputs": [
        {
          "internalType": "address",
          "name": "from",
          "type": "address"
        },
        {
          "internalType": "address",
          "name": "to",
          "type": "address"
        },
        {
          "internalType": "uint256[]",
          "name": "ids",
          "type": "uint256[]"
        },
        {
          "internalType": "uint256[]",
          "name": "amounts",
          "type": "uint256[]"
        },
        {
          "internalType": "bytes",
          "name": "data",
          "type": "bytes"
        }
      ],
      "name": "safeBatchTransferFrom",
      "outputs": [],
      "stateMutability": "nonpayable",
      "type": "function"
    },
    {
      "inputs": [
        {
          "internalType": "address",
          "name": "to",
          "type": "address"
        },
        {
          "internalType": "uint256[]",
          "name": "ids",
          "type": "uint256[]"
        },
        {
          "internalType": "uint256[]",
          "name": "values",
          "type": "uint256[]"
        },
        {
          "internalType": "bytes",
          "name": "data",
          "type": "bytes"
        }
      ],
      "name": "safeMintBatch",
      "outputs": [],
      "stateMutability": "nonpayable",
      "type": "function"
    },
    {
      "inputs": [
        {
          "internalType": "address",
          "name": "from",
          "type": "address"
        },
        {
          "internalType": "address",
          "name": "to",
          "type": "address"
        },
        {
          "internalType": "uint256",
          "name": "id",
          "type": "uint256"
        },
        {
          "internalType": "uint256",
          "name": "amount",
          "type": "uint256"
        },
        {
          "internalType": "bytes",
          "name": "data",
          "type": "bytes"
        }
      ],
      "name": "safeTransferFrom",
      "outputs": [],
      "stateMutability": "nonpayable",
      "type": "function"
    },
    {
      "inputs": [
        {
          "internalType": "address",
          "name": "operator",
          "type": "address"
        },
        {
          "internalType": "bool",
          "name": "approved",
          "type": "bool"
        }
      ],
      "name": "setApprovalForAll",
      "outputs": [],
      "stateMutability": "nonpayable",
      "type": "function"
    },
    {
      "inputs": [
        {
          "internalType": "string",
          "name": "baseURI",
          "type": "string"
        }
      ],
      "name": "setBaseURI",
      "outputs": [],
      "stateMutability": "nonpayable",
      "type": "function"
    },
    {
      "inputs": [
        {
          "internalType": "string",
          "name": "_contractURI",
          "type": "string"
        }
      ],
      "name": "setContractURI",
      "outputs": [],
      "stateMutability": "nonpayable",
      "type": "function"
    },
    {
      "inputs": [
        {
          "internalType": "bytes4",
          "name": "interfaceId",
          "type": "bytes4"
        }
      ],
      "name": "supportsInterface",
      "outputs": [
        {
          "internalType": "bool",
          "name": "",
          "type": "bool"
        }
      ],
      "stateMutability": "view",
      "type": "function"
    },
    {
      "inputs": [],
      "name": "totalSupply",
      "outputs": [
        {
          "internalType": "uint256",
          "name": "",
          "type": "uint256"
        }
      ],
      "stateMutability": "view",
      "type": "function"
    },
    {
      "inputs": [
        {
          "internalType": "uint256",
          "name": "id",
          "type": "uint256"
        }
      ],
      "name": "totalSupply",
      "outputs": [
        {
          "internalType": "uint256",
          "name": "",
          "type": "uint256"
        }
      ],
      "stateMutability": "view",
      "type": "function"
    },
    {
      "inputs": [
        {
          "internalType": "address",
          "name": "newOwner",
          "type": "address"
        }
      ],
      "name": "transferOwnership",
      "outputs": [],
      "stateMutability": "nonpayable",
      "type": "function"
    },
    {
      "inputs": [
        {
          "internalType": "bytes32",
          "name": "role",
          "type": "bytes32"
        },
        {
          "internalType": "address",
          "name": "account",
          "type": "address"
        }
      ],
      "name": "transferRole",
      "outputs": [],
      "stateMutability": "nonpayable",
      "type": "function"
    },
    {
      "inputs": [],
      "name": "unpause",
      "outputs": [],
      "stateMutability": "nonpayable",
      "type": "function"
    },
    {
      "inputs": [
        {
          "internalType": "address",
          "name": "newImplementation",
          "type": "address"
        }
      ],
      "name": "upgradeTo",
      "outputs": [],
      "stateMutability": "nonpayable",
      "type": "function"
    },
    {
      "inputs": [
        {
          "internalType": "address",
          "name": "newImplementation",
          "type": "address"
        },
        {
          "internalType": "bytes",
          "name": "data",
          "type": "bytes"
        }
      ],
      "name": "upgradeToAndCall",
      "outputs": [],
      "stateMutability": "payable",
      "type": "function"
    },
    {
      "inputs": [
        {
          "internalType": "uint256",
          "name": "badgeId",
          "type": "uint256"
        }
      ],
      "name": "uri",
      "outputs": [
        {
          "internalType": "string",
          "name": "",
          "type": "string"
        }
      ],
      "stateMutability": "view",
      "type": "function"
    },
    {
      "inputs": [
        {
          "internalType": "address",
          "name": "tokenAddress",
          "type": "address"
        },
        {
          "internalType": "uint256",
          "name": "tokenAmount",
          "type": "uint256"
        }
      ],
      "name": "withdraw",
      "outputs": [],
      "stateMutability": "nonpayable",
      "type": "function"
    },
    {
      "stateMutability": "payable",
      "type": "receive"
    }
  ],
  "bytecode": "0x60a06040523060805234801561001457600080fd5b50608051614ed061004c60003960008181610af001528181610b3001528181610f8101528181610fc101526110500152614ed06000f3fe6080604052600436106102965760003560e01c80638456cb5911610166578063ca15c873116100d3578063e985e9c51161008f578063f346dc871161006c578063f346dc871461085c578063f3fef3a31461087e578063f41425ac1461089e578063fc81a12a146108be57005b8063e985e9c5146107d3578063f242432a1461081c578063f2fde38b1461083c57005b8063ca15c87314610729578063ca27593114610749578063d3184e8014610769578063d547741f1461077e578063e34900501461079e578063e8a3d485146107be57005b80639ee12c89116101225780639ee12c8914610659578063a217fddf14610679578063a22cb4651461068e578063a3246ad3146106ae578063bd85b039146106db578063c39dfed81461070957005b80638456cb591461059b5780638da5cb5b146105b05780639010d07c146105e257806391d1485414610602578063938e3d7b146106225780639659867e1461064257005b80634e1273f4116102045780635c975abb116101c05780635c975abb146104f8578063606c042e146105115780636b63a3e514610531578063714c539814610551578063715018a6146105665780637284dcde1461057b57005b80634e1273f41461043c5780634f1ef286146104695780634f558e791461047c578063524773ce146104ac57806352d1902d146104c357806355f804b3146104d857005b80632eb2c2d6116102535780632eb2c2d6146103945780632f2ff15d146103b457806336568abe146103d45780633659cfe6146103f45780633f4ba83a146104145780634c66d5741461042957005b8062fdd58e1461029f57806301ffc9a7146102d25780630e89341c1461030257806318160ddd1461032f578063248a9ca31461034457806329efcf801461037457005b3661029d57005b005b3480156102ab57600080fd5b506102bf6102ba366004613baa565b6108de565b6040519081526020015b60405180910390f35b3480156102de57600080fd5b506102f26102ed366004613bea565b610979565b60405190151581526020016102c9565b34801561030e57600080fd5b5061032261031d366004613c07565b610984565b6040516102c99190613c70565b34801561033b57600080fd5b506102bf6109be565b34801561035057600080fd5b506102bf61035f366004613c07565b60009081526065602052604090206001015490565b34801561038057600080fd5b5061029d61038f366004613d38565b6109d7565b3480156103a057600080fd5b5061029d6103af366004613e22565b610a0b565b3480156103c057600080fd5b5061029d6103cf366004613ecb565b610a43565b3480156103e057600080fd5b5061029d6103ef366004613ecb565b610a68565b34801561040057600080fd5b5061029d61040f366004613ef7565b610ae6565b34801561042057600080fd5b5061029d610bc5565b61029d610437366004613f53565b610bf3565b34801561044857600080fd5b5061045c61045736600461402e565b610e4e565b6040516102c991906140cc565b61029d6104773660046140df565b610f77565b34801561048857600080fd5b506102f2610497366004613c07565b60009081526101916020526040902054151590565b3480156104b857600080fd5b506102bf6102285481565b3480156104cf57600080fd5b506102bf611043565b3480156104e457600080fd5b5061029d6104f3366004614122565b6110f7565b34801561050457600080fd5b5061012d5460ff166102f2565b34801561051d57600080fd5b5061029d61052c366004614156565b611124565b34801561053d57600080fd5b5061029d61054c3660046141fa565b61119a565b34801561055d57600080fd5b5061032261124a565b34801561057257600080fd5b5061029d611256565b34801561058757600080fd5b5061029d610596366004614273565b611268565b3480156105a757600080fd5b5061029d611476565b3480156105bc57600080fd5b5060c9546001600160a01b03165b6040516001600160a01b0390911681526020016102c9565b3480156105ee57600080fd5b506105ca6105fd3660046142d5565b6114a2565b34801561060e57600080fd5b506102f261061d366004613ecb565b6114c1565b34801561062e57600080fd5b5061029d61063d366004614122565b6114ec565b34801561064e57600080fd5b506102bf6102275481565b34801561066557600080fd5b5061029d610674366004613ecb565b61151d565b34801561068557600080fd5b506102bf600081565b34801561069a57600080fd5b5061029d6106a9366004614305565b6115a7565b3480156106ba57600080fd5b506106ce6106c9366004613c07565b6115b2565b6040516102c9919061433c565b3480156106e757600080fd5b506102bf6106f6366004613c07565b6000908152610191602052604090205490565b34801561071557600080fd5b5061029d610724366004614389565b611658565b34801561073557600080fd5b506102bf610744366004613c07565b6116ec565b34801561075557600080fd5b5061029d61076436600461442b565b611703565b34801561077557600080fd5b506102f2611819565b34801561078a57600080fd5b5061029d610799366004613ecb565b611824565b3480156107aa57600080fd5b5061029d6107b93660046144a8565b611849565b3480156107ca57600080fd5b506103226118b9565b3480156107df57600080fd5b506102f26107ee366004614534565b6001600160a01b03918216600090815260fc6020908152604080832093909416825291909152205460ff1690565b34801561082857600080fd5b5061029d61083736600461455e565b611948565b34801561084857600080fd5b5061029d610857366004613ef7565b611979565b34801561086857600080fd5b506102bf600080516020614e3483398151915281565b34801561088a57600080fd5b5061029d610899366004613baa565b6119ef565b3480156108aa57600080fd5b5061029d6108b93660046145c2565b611b19565b3480156108ca57600080fd5b506102f26108d9366004613ef7565b611bd9565b60006001600160a01b03831661094e5760405162461bcd60e51b815260206004820152602a60248201527f455243313135353a2061646472657373207a65726f206973206e6f742061207660448201526930b634b21037bbb732b960b11b60648201526084015b60405180910390fd5b50600081815260fb602090815260408083206001600160a01b03861684529091529020545b92915050565b600061097382611c36565b606061098e61124a565b61099783611c76565b6040516020016109a892919061465b565b6040516020818303038152906040529050919050565b600061022854610227546109d291906146a0565b905090565b6109df611819565b6109fb5760405162461bcd60e51b8152600401610945906146b3565b610a06838383611d08565b505050565b610a13611819565b610a2f5760405162461bcd60e51b8152600401610945906146b3565b610a3c8585858585611d15565b5050505050565b600082815260656020526040902060010154610a5e81611eba565b610a068383611ec4565b6001600160a01b0381163314610ad85760405162461bcd60e51b815260206004820152602f60248201527f416363657373436f6e74726f6c3a2063616e206f6e6c792072656e6f756e636560448201526e103937b632b9903337b91039b2b63360891b6064820152608401610945565b610ae28282611ee6565b5050565b6001600160a01b037f0000000000000000000000000000000000000000000000000000000000000000163003610b2e5760405162461bcd60e51b8152600401610945906146ea565b7f00000000000000000000000000000000000000000000000000000000000000006001600160a01b0316610b77600080516020614e54833981519152546001600160a01b031690565b6001600160a01b031614610b9d5760405162461bcd60e51b815260040161094590614736565b610ba681611f08565b60408051600080825260208201909252610bc291839190611f2c565b50565b610bcd611819565b610be95760405162461bcd60e51b8152600401610945906146b3565b610bf1612097565b565b6000336040516bffffffffffffffffffffffff19606092831b81166020830152603482018890529186901b9091166054820152606881018490526088810183905260a801604051602081830303815290604052805190602001209050610c86817f19457468657265756d205369676e6564204d6573736167653a0a3332000000006000908152601c91909152603c902090565b90506000610cca8289898080601f0160208091040260200160405190810160405280939291908181526020018383808284376000920191909152506120ea92505050565b9050610cd581611bd9565b610d2b5760405162461bcd60e51b815260206004820152602160248201527f496e76616c696420617070726f76616c207369676e6174757265207369676e656044820152603960f91b6064820152608401610945565b8315610e1f576001600160a01b038516610d945783341015610d8f5760405162461bcd60e51b815260206004820181905260248201527f496e73756666696369656e7420494d5820616d6f756e742072656365697665646044820152606401610945565b610e1f565b846001600160a01b0381166323b872dd336040516001600160e01b031960e084901b1681526001600160a01b039091166004820152306024820152604481018890526064016020604051808303816000875af1158015610df8573d6000803e3d6000fd5b505050506040513d601f19601f82011682018060405250810190610e1c9190614782565b50505b610e44338760405180604001604052806002815260200161060f60f31b815250611d08565b5050505050505050565b60608151835114610eb35760405162461bcd60e51b815260206004820152602960248201527f455243313135353a206163636f756e747320616e6420696473206c656e677468604482015268040dad2e6dac2e8c6d60bb1b6064820152608401610945565b600083516001600160401b03811115610ece57610ece613c83565b604051908082528060200260200182016040528015610ef7578160200160208202803683370190505b50905060005b8451811015610f6f57610f42858281518110610f1b57610f1b61479f565b6020026020010151858381518110610f3557610f3561479f565b60200260200101516108de565b828281518110610f5457610f5461479f565b6020908102919091010152610f68816147b5565b9050610efd565b509392505050565b6001600160a01b037f0000000000000000000000000000000000000000000000000000000000000000163003610fbf5760405162461bcd60e51b8152600401610945906146ea565b7f00000000000000000000000000000000000000000000000000000000000000006001600160a01b0316611008600080516020614e54833981519152546001600160a01b031690565b6001600160a01b03161461102e5760405162461bcd60e51b815260040161094590614736565b61103782611f08565b610ae282826001611f2c565b6000306001600160a01b037f000000000000000000000000000000000000000000000000000000000000000016146110e35760405162461bcd60e51b815260206004820152603860248201527f555550535570677261646561626c653a206d757374206e6f742062652063616c60448201527f6c6564207468726f7567682064656c656761746563616c6c00000000000000006064820152608401610945565b50600080516020614e548339815191525b90565b6110ff611819565b61111b5760405162461bcd60e51b8152600401610945906146b3565b610bc281612106565b61112c611819565b6111485760405162461bcd60e51b8152600401610945906146b3565b336001600160a01b03167fae8745b7e9666967f62dba3d82bf078370dd1aecbdb426ef8fa67f04fbb633f1826040516111819190613c70565b60405180910390a2611194848484612112565b50505050565b6111a2611819565b6111be5760405162461bcd60e51b8152600401610945906146b3565b60005b84811015611242576112308686838181106111de576111de61479f565b90506020020160208101906111f39190613ef7565b8585858080601f016020809104026020016040519081016040528093929190818152602001838380828437600092019190915250611d0892505050565b8061123a816147b5565b9150506111c1565b505050505050565b60606109d2600061222e565b61125e6122c2565b610bf1600061231c565b611270611819565b61128c5760405162461bcd60e51b8152600401610945906146b3565b826000816001600160401b038111156112a7576112a7613c83565b6040519080825280602002602001820160405280156112d0578160200160208202803683370190505b50905060005b828110156113f95760008787838181106112f2576112f261479f565b90506020020135905061130589826108de565b156113225760405162461bcd60e51b8152600401610945906147ce565b61132d6001856146a0565b8210156113c7576000611341836001614819565b90505b848110156113c5578189898381811061135f5761135f61479f565b90506020020135036113b35760405162461bcd60e51b815260206004820152601c60248201527f4475706c696361746520626164676520494473206465746563746564000000006044820152606401610945565b806113bd816147b5565b915050611344565b505b60018383815181106113db576113db61479f565b602090810291909101015250806113f1816147b5565b9150506112d6565b5061146d8787878080602002602001604051908101604052809392919081815260200183836020028082843760009201919091525050604080516020601f8b018190048102820181019092528981528793509150899089908190840183828082843760009201919091525061236e92505050565b50505050505050565b61147e611819565b61149a5760405162461bcd60e51b8152600401610945906146b3565b610bf16124c9565b60008281526097602052604081206114ba9083612507565b9392505050565b60009182526065602090815260408084206001600160a01b0393909316845291905290205460ff1690565b6114f4611819565b6115105760405162461bcd60e51b8152600401610945906146b3565b610229610ae282826148ac565b8161152781611eba565b6001600160a01b03821633036115935760405162461bcd60e51b815260206004820152602b60248201527f4163636f756e74206d757374206e6f7420626520657175616c206173206d657360448201526a39b0b3b29039b2b73232b960a91b6064820152608401610945565b61159d8383611ec4565b610a068333611ee6565b610ae2338383612513565b606060006115bf836116ec565b90506000816001600160401b038111156115db576115db613c83565b604051908082528060200260200182016040528015611604578160200160208202803683370190505b50905060005b82811015610f6f5761161c85826114a2565b82828151811061162e5761162e61479f565b6001600160a01b039092166020928302919091019091015280611650816147b5565b91505061160a565b611660611819565b61167c5760405162461bcd60e51b8152600401610945906146b3565b6112428686868080602002602001604051908101604052809392919081815260200183836020028082843760009201919091525050604080516020808a0282810182019093528982529093508992508891829185019084908082843760009201919091525087925061236e915050565b6000818152609760205260408120610973906125f3565b600054610100900460ff16158080156117235750600054600160ff909116105b8061173d5750303b15801561173d575060005460ff166001145b6117a05760405162461bcd60e51b815260206004820152602e60248201527f496e697469616c697a61626c653a20636f6e747261637420697320616c72656160448201526d191e481a5b9a5d1a585b1a5e995960921b6064820152608401610945565b6000805460ff1916600117905580156117c3576000805461ff0019166101001790555b6117ce8484846125fd565b8015611194576000805461ff0019169055604051600181527f7f26b83ff96e1f2b6a682f133852f6798a09c465da95921460cefb38474024989060200160405180910390a150505050565b60006109d233611bd9565b60008281526065602052604090206001015461183f81611eba565b610a068383611ee6565b611851611819565b61186d5760405162461bcd60e51b8152600401610945906146b3565b336001600160a01b03167fae8745b7e9666967f62dba3d82bf078370dd1aecbdb426ef8fa67f04fbb633f1826040516118a69190613c70565b60405180910390a261119484848461262f565b61022980546118c79061482c565b80601f01602080910402602001604051908101604052809291908181526020018280546118f39061482c565b80156119405780601f1061191557610100808354040283529160200191611940565b820191906000526020600020905b81548152906001019060200180831161192357829003601f168201915b505050505081565b611950611819565b61196c5760405162461bcd60e51b8152600401610945906146b3565b610a3c85858585856127ce565b6119816122c2565b6001600160a01b0381166119e65760405162461bcd60e51b815260206004820152602660248201527f4f776e61626c653a206e6577206f776e657220697320746865207a65726f206160448201526564647265737360d01b6064820152608401610945565b610bc28161231c565b60006119fa81611eba565b6001600160a01b038316611a97576040513390600090829085908381818185875af1925050503d8060008114611a4c576040519150601f19603f3d011682016040523d82523d6000602084013e611a51565b606091505b5050905080610a3c5760405162461bcd60e51b815260206004820152601260248201527108cc2d2d8cac840e8de40e6cadcc840929ab60731b6044820152606401610945565b826001600160a01b03811663a9059cbb336040516001600160e01b031960e084901b1681526001600160a01b039091166004820152602481018690526044016020604051808303816000875af1158015611af5573d6000803e3d6000fd5b505050506040513d601f19601f82011682018060405250810190610a3c9190614782565b611b21611819565b611b3d5760405162461bcd60e51b8152600401610945906146b3565b60005b8581101561146d57611bc7878783818110611b5d57611b5d61479f565b9050602002016020810190611b729190613ef7565b868684818110611b8457611b8461479f565b9050602002013585858080601f016020809104026020016040519081016040528093929190818152602001838380828437600092019190915250611d0892505050565b80611bd1816147b5565b915050611b40565b6000611bf3600080516020614e34833981519152836114c1565b80611c045750611c046000836114c1565b806109735750816001600160a01b0316611c2660c9546001600160a01b031690565b6001600160a01b03161492915050565b60006001600160e01b03198216636cdb3d1360e11b1480611c6757506001600160e01b031982166303a24d0760e21b145b8061097357506109738261290a565b60606000611c838361292f565b60010190506000816001600160401b03811115611ca257611ca2613c83565b6040519080825280601f01601f191660200182016040528015611ccc576020820181803683370190505b5090508181016020015b600019016f181899199a1a9b1b9c1cb0b131b232b360811b600a86061a8153600a8504945084611cd657509392505050565b610a068383600184612a07565b8151835114611d365760405162461bcd60e51b81526004016109459061496b565b6001600160a01b038416611d5c5760405162461bcd60e51b8152600401610945906149b3565b33611d6b818787878787612a46565b60005b8451811015611e54576000858281518110611d8b57611d8b61479f565b602002602001015190506000858381518110611da957611da961479f565b602090810291909101810151600084815260fb835260408082206001600160a01b038e168352909352919091205490915081811015611dfa5760405162461bcd60e51b8152600401610945906149f8565b600083815260fb602090815260408083206001600160a01b038e8116855292528083208585039055908b16825281208054849290611e39908490614819565b9250508190555050505080611e4d906147b5565b9050611d6e565b50846001600160a01b0316866001600160a01b0316826001600160a01b03167f4a39dc06d4c0dbc64b70af90fd698a233a518aa5d07e595d983b8c0526c8f7fb8787604051611ea4929190614a42565b60405180910390a4611242818787878787612b0c565b610bc28133612c67565b611ece8282612cc0565b6000828152609760205260409020610a069082612d46565b611ef08282612d5b565b6000828152609760205260409020610a069082612dc2565b611f10611819565b610bc25760405162461bcd60e51b8152600401610945906146b3565b7f4910fdfa16fed3260ed0e7147f7cc6da11a60208b5b9406d12a635614ffd91435460ff1615611f5f57610a0683612dd7565b826001600160a01b03166352d1902d6040518163ffffffff1660e01b8152600401602060405180830381865afa925050508015611fb9575060408051601f3d908101601f19168201909252611fb691810190614a70565b60015b61201c5760405162461bcd60e51b815260206004820152602e60248201527f45524331393637557067726164653a206e657720696d706c656d656e7461746960448201526d6f6e206973206e6f74205555505360901b6064820152608401610945565b600080516020614e54833981519152811461208b5760405162461bcd60e51b815260206004820152602960248201527f45524331393637557067726164653a20756e737570706f727465642070726f786044820152681a58589b195555525160ba1b6064820152608401610945565b50610a06838383612e73565b61209f612e98565b61012d805460ff191690557f5db9ee0a495bf2e6ff9c91a7834c1ba4fdd244a5e8aa4e537bd38aeae4b073aa335b6040516001600160a01b03909116815260200160405180910390a1565b60008060006120f98585612ee2565b91509150610f6f81612f27565b60fd610ae282826148ac565b6001600160a01b0383166121385760405162461bcd60e51b815260040161094590614a89565b33600061214484613071565b9050600061215184613071565b905061217183876000858560405180602001604052806000815250612a46565b600085815260fb602090815260408083206001600160a01b038a168452909152902054848110156121b45760405162461bcd60e51b815260040161094590614acc565b600086815260fb602090815260408083206001600160a01b038b81168086529184528285208a8703905582518b81529384018a90529092908816917fc3d58168c5ae7397731d063d5bbf3d657854427343f4c083240f7aacaa2d0f62910160405180910390a460408051602081019091526000905261146d565b606060fd805461223d9061482c565b80601f01602080910402602001604051908101604052809291908181526020018280546122699061482c565b80156122b65780601f1061228b576101008083540402835291602001916122b6565b820191906000526020600020905b81548152906001019060200180831161229957829003601f168201915b50505050509050919050565b60c9546001600160a01b03163314610bf15760405162461bcd60e51b815260206004820181905260248201527f4f776e61626c653a2063616c6c6572206973206e6f7420746865206f776e65726044820152606401610945565b60c980546001600160a01b038381166001600160a01b0319831681179093556040519116919082907f8be0079c531659141344cd1fd0a4f28419497f9722a3daafe3b4186f6b6457e090600090a35050565b6001600160a01b0384166123945760405162461bcd60e51b815260040161094590614b10565b81518351146123b55760405162461bcd60e51b81526004016109459061496b565b336123c581600087878787612a46565b60005b8451811015612461578381815181106123e3576123e361479f565b602002602001015160fb60008784815181106124015761240161479f565b602002602001015181526020019081526020016000206000886001600160a01b03166001600160a01b0316815260200190815260200160002060008282546124499190614819565b90915550819050612459816147b5565b9150506123c8565b50846001600160a01b031660006001600160a01b0316826001600160a01b03167f4a39dc06d4c0dbc64b70af90fd698a233a518aa5d07e595d983b8c0526c8f7fb87876040516124b2929190614a42565b60405180910390a4610a3c81600087878787612b0c565b6124d16130bc565b61012d805460ff191660011790557f62e78cea01bee320cd4e420270b5ea74000d11b0c9f74754ebdbfc544b05a2586120cd3390565b60006114ba8383613103565b816001600160a01b0316836001600160a01b0316036125865760405162461bcd60e51b815260206004820152602960248201527f455243313135353a2073657474696e6720617070726f76616c20737461747573604482015268103337b91039b2b63360b91b6064820152608401610945565b6001600160a01b03838116600081815260fc6020908152604080832094871680845294825291829020805460ff191686151590811790915591519182527f17307eab39ab6107e8899845ad3d59bd9653f200f220920489ca2b5937696c31910160405180910390a3505050565b6000610973825490565b600054610100900460ff166126245760405162461bcd60e51b815260040161094590614b51565b610a0683838361312d565b6001600160a01b0383166126555760405162461bcd60e51b815260040161094590614a89565b80518251146126765760405162461bcd60e51b81526004016109459061496b565b600033905061269981856000868660405180602001604052806000815250612a46565b60005b83518110156127615760008482815181106126b9576126b961479f565b6020026020010151905060008483815181106126d7576126d761479f565b602090810291909101810151600084815260fb835260408082206001600160a01b038c1683529093529190912054909150818110156127285760405162461bcd60e51b815260040161094590614acc565b600092835260fb602090815260408085206001600160a01b038b1686529091529092209103905580612759816147b5565b91505061269c565b5060006001600160a01b0316846001600160a01b0316826001600160a01b03167f4a39dc06d4c0dbc64b70af90fd698a233a518aa5d07e595d983b8c0526c8f7fb86866040516127b2929190614a42565b60405180910390a4604080516020810190915260009052611194565b6001600160a01b0384166127f45760405162461bcd60e51b8152600401610945906149b3565b33600061280085613071565b9050600061280d85613071565b905061281d838989858589612a46565b600086815260fb602090815260408083206001600160a01b038c168452909152902054858110156128605760405162461bcd60e51b8152600401610945906149f8565b600087815260fb602090815260408083206001600160a01b038d8116855292528083208985039055908a1682528120805488929061289f908490614819565b909155505060408051888152602081018890526001600160a01b03808b16928c821692918816917fc3d58168c5ae7397731d063d5bbf3d657854427343f4c083240f7aacaa2d0f62910160405180910390a46128ff848a8a8a8a8a6131cb565b505050505050505050565b60006001600160e01b03198216635a05180f60e01b1480610973575061097382613286565b60008072184f03e93ff9f4daa797ed6e38ed64bf6a1f0160401b831061296e5772184f03e93ff9f4daa797ed6e38ed64bf6a1f0160401b830492506040015b6d04ee2d6d415b85acef8100000000831061299a576d04ee2d6d415b85acef8100000000830492506020015b662386f26fc1000083106129b857662386f26fc10000830492506010015b6305f5e10083106129d0576305f5e100830492506008015b61271083106129e457612710830492506004015b606483106129f6576064830492506002015b600a83106109735760010192915050565b612a1184846108de565b158015612a1e5750816001145b612a3a5760405162461bcd60e51b8152600401610945906147ce565b611194848484846132bb565b612a5486868686868661339d565b825160005b81811015610e44576000858281518110612a7557612a7561479f565b602002602001015190506000858381518110612a9357612a9361479f565b6020026020010151905060006001600160a01b0316896001600160a01b031603612ad057806102276000828254612aca9190614819565b90915550505b6001600160a01b038816612af757806102286000828254612af19190614819565b90915550505b50508080612b04906147b5565b915050612a59565b6001600160a01b0384163b156112425760405163bc197c8160e01b81526001600160a01b0385169063bc197c8190612b509089908990889088908890600401614b9c565b6020604051808303816000875af1925050508015612b8b575060408051601f3d908101601f19168201909252612b8891810190614bfa565b60015b612c3757612b97614c17565b806308c379a003612bd05750612bab614c32565b80612bb65750612bd2565b8060405162461bcd60e51b81526004016109459190613c70565b505b60405162461bcd60e51b815260206004820152603460248201527f455243313135353a207472616e7366657220746f206e6f6e2d455243313135356044820152732932b1b2b4bb32b91034b6b83632b6b2b73a32b960611b6064820152608401610945565b6001600160e01b0319811663bc197c8160e01b1461146d5760405162461bcd60e51b815260040161094590614cbb565b612c7182826114c1565b610ae257612c7e81613527565b612c89836020613539565b604051602001612c9a929190614d03565b60408051601f198184030181529082905262461bcd60e51b825261094591600401613c70565b612cca82826114c1565b610ae25760008281526065602090815260408083206001600160a01b03851684529091529020805460ff19166001179055612d023390565b6001600160a01b0316816001600160a01b0316837f2f8788117e7eff1d82e926ec794901d17c78024a50270940304540a733656f0d60405160405180910390a45050565b60006114ba836001600160a01b0384166136d4565b612d6582826114c1565b15610ae25760008281526065602090815260408083206001600160a01b0385168085529252808320805460ff1916905551339285917ff6391f5c32d9c69d2a47ea670b442974b53935d1edc7fd64eb21e047a839171b9190a45050565b60006114ba836001600160a01b038416613723565b6001600160a01b0381163b612e445760405162461bcd60e51b815260206004820152602d60248201527f455243313936373a206e657720696d706c656d656e746174696f6e206973206e60448201526c1bdd08184818dbdb9d1c9858dd609a1b6064820152608401610945565b600080516020614e5483398151915280546001600160a01b0319166001600160a01b0392909216919091179055565b612e7c83613816565b600082511180612e895750805b15610a06576111948383613856565b61012d5460ff16610bf15760405162461bcd60e51b815260206004820152601460248201527314185d5cd8589b194e881b9bdd081c185d5cd95960621b6044820152606401610945565b6000808251604103612f185760208301516040840151606085015160001a612f0c8782858561387b565b94509450505050612f20565b506000905060025b9250929050565b6000816004811115612f3b57612f3b614d78565b03612f435750565b6001816004811115612f5757612f57614d78565b03612fa45760405162461bcd60e51b815260206004820152601860248201527f45434453413a20696e76616c6964207369676e617475726500000000000000006044820152606401610945565b6002816004811115612fb857612fb8614d78565b036130055760405162461bcd60e51b815260206004820152601f60248201527f45434453413a20696e76616c6964207369676e6174757265206c656e677468006044820152606401610945565b600381600481111561301957613019614d78565b03610bc25760405162461bcd60e51b815260206004820152602260248201527f45434453413a20696e76616c6964207369676e6174757265202773272076616c604482015261756560f01b6064820152608401610945565b604080516001808252818301909252606091600091906020808301908036833701905050905082816000815181106130ab576130ab61479f565b602090810291909101015292915050565b61012d5460ff1615610bf15760405162461bcd60e51b815260206004820152601060248201526f14185d5cd8589b194e881c185d5cd95960821b6044820152606401610945565b600082600001828154811061311a5761311a61479f565b9060005260206000200154905092915050565b600054610100900460ff166131545760405162461bcd60e51b815260040161094590614b51565b61022961316183826148ac565b5060005b81518110156131b15761319f600080516020614e348339815191528383815181106131925761319261479f565b6020026020010151611ec4565b806131a9816147b5565b915050613165565b506131ba61393f565b6131c2613973565b610a06836139c5565b6001600160a01b0384163b156112425760405163f23a6e6160e01b81526001600160a01b0385169063f23a6e619061320f9089908990889088908890600401614d8e565b6020604051808303816000875af192505050801561324a575060408051601f3d908101601f1916820190925261324791810190614bfa565b60015b61325657612b97614c17565b6001600160e01b0319811663f23a6e6160e01b1461146d5760405162461bcd60e51b815260040161094590614cbb565b60006001600160e01b03198216637965db0b60e01b148061097357506301ffc9a760e01b6001600160e01b0319831614610973565b6001600160a01b0384166132e15760405162461bcd60e51b815260040161094590614b10565b3360006132ed85613071565b905060006132fa85613071565b905061330b83600089858589612a46565b600086815260fb602090815260408083206001600160a01b038b1684529091528120805487929061333d908490614819565b909155505060408051878152602081018790526001600160a01b03808a1692600092918716917fc3d58168c5ae7397731d063d5bbf3d657854427343f4c083240f7aacaa2d0f62910160405180910390a461146d836000898989896131cb565b6133ab8686868686866139ec565b6001600160a01b0385166134335760005b8351811015613431578281815181106133d7576133d761479f565b602002602001015161019160008684815181106133f6576133f661479f565b60200260200101518152602001908152602001600020600082825461341b9190614819565b9091555061342a9050816147b5565b90506133bc565b505b6001600160a01b0384166112425760005b835181101561146d5760008482815181106134615761346161479f565b60200260200101519050600084838151811061347f5761347f61479f565b6020026020010151905060006101916000848152602001908152602001600020549050818110156135035760405162461bcd60e51b815260206004820152602860248201527f455243313135353a206275726e20616d6f756e74206578636565647320746f74604482015267616c537570706c7960c01b6064820152608401610945565b6000928352610191602052604090922091039055613520816147b5565b9050613444565b60606109736001600160a01b03831660145b60606000613548836002614dd3565b613553906002614819565b6001600160401b0381111561356a5761356a613c83565b6040519080825280601f01601f191660200182016040528015613594576020820181803683370190505b509050600360fc1b816000815181106135af576135af61479f565b60200101906001600160f81b031916908160001a905350600f60fb1b816001815181106135de576135de61479f565b60200101906001600160f81b031916908160001a9053506000613602846002614dd3565b61360d906001614819565b90505b6001811115613685576f181899199a1a9b1b9c1cb0b131b232b360811b85600f16601081106136415761364161479f565b1a60f81b8282815181106136575761365761479f565b60200101906001600160f81b031916908160001a90535060049490941c9361367e81614dea565b9050613610565b5083156114ba5760405162461bcd60e51b815260206004820181905260248201527f537472696e67733a20686578206c656e67746820696e73756666696369656e746044820152606401610945565b600081815260018301602052604081205461371b57508154600181810184556000848152602080822090930184905584548482528286019093526040902091909155610973565b506000610973565b6000818152600183016020526040812054801561380c5760006137476001836146a0565b855490915060009061375b906001906146a0565b90508181146137c057600086600001828154811061377b5761377b61479f565b906000526020600020015490508087600001848154811061379e5761379e61479f565b6000918252602080832090910192909255918252600188019052604090208390555b85548690806137d1576137d1614e01565b600190038181906000526020600020016000905590558560010160008681526020019081526020016000206000905560019350505050610973565b6000915050610973565b61381f81612dd7565b6040516001600160a01b038216907fbc7cd75a20ee27fd9adebab32041f755214dbc6bffa90cc0225b39da2e5c2d3b90600090a250565b60606114ba8383604051806060016040528060278152602001614e7460279139613a55565b6000807f7fffffffffffffffffffffffffffffff5d576e7357a4501ddfe92f46681b20a08311156138b25750600090506003613936565b6040805160008082526020820180845289905260ff881692820192909252606081018690526080810185905260019060a0016020604051602081039080840390855afa158015613906573d6000803e3d6000fd5b5050604051601f1901519150506001600160a01b03811661392f57600060019250925050613936565b9150600090505b94509492505050565b600054610100900460ff166139665760405162461bcd60e51b815260040161094590614b51565b61012d805460ff19169055565b600054610100900460ff1661399a5760405162461bcd60e51b815260040161094590614b51565b6139a2613acd565b6139ad600033611ec4565b610bf1600080516020614e3483398151915233611ec4565b600054610100900460ff1661111b5760405162461bcd60e51b815260040161094590614b51565b61012d5460ff16156112425760405162461bcd60e51b815260206004820152602c60248201527f455243313135355061757361626c653a20746f6b656e207472616e736665722060448201526b1dda1a5b19481c185d5cd95960a21b6064820152608401610945565b6060600080856001600160a01b031685604051613a729190614e17565b600060405180830381855af49150503d8060008114613aad576040519150601f19603f3d011682016040523d82523d6000602084013e613ab2565b606091505b5091509150613ac386838387613afd565b9695505050505050565b600054610100900460ff16613af45760405162461bcd60e51b815260040161094590614b51565b610bf13361231c565b60608315613b6c578251600003613b65576001600160a01b0385163b613b655760405162461bcd60e51b815260206004820152601d60248201527f416464726573733a2063616c6c20746f206e6f6e2d636f6e74726163740000006044820152606401610945565b5081613b76565b613b768383613b7e565b949350505050565b815115612bb65781518083602001fd5b80356001600160a01b0381168114613ba557600080fd5b919050565b60008060408385031215613bbd57600080fd5b613bc683613b8e565b946020939093013593505050565b6001600160e01b031981168114610bc257600080fd5b600060208284031215613bfc57600080fd5b81356114ba81613bd4565b600060208284031215613c1957600080fd5b5035919050565b60005b83811015613c3b578181015183820152602001613c23565b50506000910152565b60008151808452613c5c816020860160208601613c20565b601f01601f19169290920160200192915050565b6020815260006114ba6020830184613c44565b634e487b7160e01b600052604160045260246000fd5b601f8201601f191681016001600160401b0381118282101715613cbe57613cbe613c83565b6040525050565b600082601f830112613cd657600080fd5b81356001600160401b03811115613cef57613cef613c83565b604051613d06601f8301601f191660200182613c99565b818152846020838601011115613d1b57600080fd5b816020850160208301376000918101602001919091529392505050565b600080600060608486031215613d4d57600080fd5b613d5684613b8e565b92506020840135915060408401356001600160401b03811115613d7857600080fd5b613d8486828701613cc5565b9150509250925092565b60006001600160401b03821115613da757613da7613c83565b5060051b60200190565b600082601f830112613dc257600080fd5b81356020613dcf82613d8e565b604051613ddc8282613c99565b83815260059390931b8501820192828101915086841115613dfc57600080fd5b8286015b84811015613e175780358352918301918301613e00565b509695505050505050565b600080600080600060a08688031215613e3a57600080fd5b613e4386613b8e565b9450613e5160208701613b8e565b935060408601356001600160401b0380821115613e6d57600080fd5b613e7989838a01613db1565b94506060880135915080821115613e8f57600080fd5b613e9b89838a01613db1565b93506080880135915080821115613eb157600080fd5b50613ebe88828901613cc5565b9150509295509295909350565b60008060408385031215613ede57600080fd5b82359150613eee60208401613b8e565b90509250929050565b600060208284031215613f0957600080fd5b6114ba82613b8e565b60008083601f840112613f2457600080fd5b5081356001600160401b03811115613f3b57600080fd5b602083019150836020828501011115612f2057600080fd5b60008060008060008060a08789031215613f6c57600080fd5b86356001600160401b03811115613f8257600080fd5b613f8e89828a01613f12565b90975095505060208701359350613fa760408801613b8e565b925060608701359150608087013590509295509295509295565b600082601f830112613fd257600080fd5b81356020613fdf82613d8e565b604051613fec8282613c99565b83815260059390931b850182019282810191508684111561400c57600080fd5b8286015b84811015613e175761402181613b8e565b8352918301918301614010565b6000806040838503121561404157600080fd5b82356001600160401b038082111561405857600080fd5b61406486838701613fc1565b9350602085013591508082111561407a57600080fd5b5061408785828601613db1565b9150509250929050565b600081518084526020808501945080840160005b838110156140c1578151875295820195908201906001016140a5565b509495945050505050565b6020815260006114ba6020830184614091565b600080604083850312156140f257600080fd5b6140fb83613b8e565b915060208301356001600160401b0381111561411657600080fd5b61408785828601613cc5565b60006020828403121561413457600080fd5b81356001600160401b0381111561414a57600080fd5b613b7684828501613cc5565b6000806000806080858703121561416c57600080fd5b61417585613b8e565b9350602085013592506040850135915060608501356001600160401b0381111561419e57600080fd5b6141aa87828801613cc5565b91505092959194509250565b60008083601f8401126141c857600080fd5b5081356001600160401b038111156141df57600080fd5b6020830191508360208260051b8501011115612f2057600080fd5b60008060008060006060868803121561421257600080fd5b85356001600160401b038082111561422957600080fd5b61423589838a016141b6565b909750955060208801359450604088013591508082111561425557600080fd5b5061426288828901613f12565b969995985093965092949392505050565b60008060008060006060868803121561428b57600080fd5b61429486613b8e565b945060208601356001600160401b03808211156142b057600080fd5b6142bc89838a016141b6565b9096509450604088013591508082111561425557600080fd5b600080604083850312156142e857600080fd5b50508035926020909101359150565b8015158114610bc257600080fd5b6000806040838503121561431857600080fd5b61432183613b8e565b91506020830135614331816142f7565b809150509250929050565b6020808252825182820181905260009190848201906040850190845b8181101561437d5783516001600160a01b031683529284019291840191600101614358565b50909695505050505050565b600080600080600080608087890312156143a257600080fd5b6143ab87613b8e565b955060208701356001600160401b03808211156143c757600080fd5b6143d38a838b016141b6565b909750955060408901359150808211156143ec57600080fd5b6143f88a838b016141b6565b9095509350606089013591508082111561441157600080fd5b5061441e89828a01613cc5565b9150509295509295509295565b60008060006060848603121561444057600080fd5b83356001600160401b038082111561445757600080fd5b61446387838801613cc5565b9450602086013591508082111561447957600080fd5b61448587838801613cc5565b9350604086013591508082111561449b57600080fd5b50613d8486828701613fc1565b600080600080608085870312156144be57600080fd5b6144c785613b8e565b935060208501356001600160401b03808211156144e357600080fd5b6144ef88838901613db1565b9450604087013591508082111561450557600080fd5b61451188838901613db1565b9350606087013591508082111561452757600080fd5b506141aa87828801613cc5565b6000806040838503121561454757600080fd5b61455083613b8e565b9150613eee60208401613b8e565b600080600080600060a0868803121561457657600080fd5b61457f86613b8e565b945061458d60208701613b8e565b9350604086013592506060860135915060808601356001600160401b038111156145b657600080fd5b613ebe88828901613cc5565b600080600080600080606087890312156145db57600080fd5b86356001600160401b03808211156145f257600080fd5b6145fe8a838b016141b6565b9098509650602089013591508082111561461757600080fd5b6146238a838b016141b6565b9096509450604089013591508082111561463c57600080fd5b5061464989828a01613f12565b979a9699509497509295939492505050565b6000835161466d818460208801613c20565b835190830190614681818360208801613c20565b01949350505050565b634e487b7160e01b600052601160045260246000fd5b818103818111156109735761097361468a565b6020808252601d908201527f43616c6c6572206d75737420626520636f6e74726163742061646d696e000000604082015260600190565b6020808252602c908201527f46756e6374696f6e206d7573742062652063616c6c6564207468726f7567682060408201526b19195b1959d85d1958d85b1b60a21b606082015260800190565b6020808252602c908201527f46756e6374696f6e206d7573742062652063616c6c6564207468726f7567682060408201526b6163746976652070726f787960a01b606082015260800190565b60006020828403121561479457600080fd5b81516114ba816142f7565b634e487b7160e01b600052603260045260246000fd5b6000600182016147c7576147c761468a565b5060010190565b6020808252602b908201527f4163636f756e74732063616e206f6e6c7920706f7373657373206f6e65206f6660408201526a206561636820626164676560a81b606082015260800190565b808201808211156109735761097361468a565b600181811c9082168061484057607f821691505b60208210810361486057634e487b7160e01b600052602260045260246000fd5b50919050565b601f821115610a0657600081815260208120601f850160051c8101602086101561488d5750805b601f850160051c820191505b8181101561124257828155600101614899565b81516001600160401b038111156148c5576148c5613c83565b6148d9816148d3845461482c565b84614866565b602080601f83116001811461490e57600084156148f65750858301515b600019600386901b1c1916600185901b178555611242565b600085815260208120601f198616915b8281101561493d5788860151825594840194600190910190840161491e565b508582101561495b5787850151600019600388901b60f8161c191681555b5050505050600190811b01905550565b60208082526028908201527f455243313135353a2069647320616e6420616d6f756e7473206c656e677468206040820152670dad2e6dac2e8c6d60c31b606082015260800190565b60208082526025908201527f455243313135353a207472616e7366657220746f20746865207a65726f206164604082015264647265737360d81b606082015260800190565b6020808252602a908201527f455243313135353a20696e73756666696369656e742062616c616e636520666f60408201526939103a3930b739b332b960b11b606082015260800190565b604081526000614a556040830185614091565b8281036020840152614a678185614091565b95945050505050565b600060208284031215614a8257600080fd5b5051919050565b60208082526023908201527f455243313135353a206275726e2066726f6d20746865207a65726f206164647260408201526265737360e81b606082015260800190565b60208082526024908201527f455243313135353a206275726e20616d6f756e7420657863656564732062616c604082015263616e636560e01b606082015260800190565b60208082526021908201527f455243313135353a206d696e7420746f20746865207a65726f206164647265736040820152607360f81b606082015260800190565b6020808252602b908201527f496e697469616c697a61626c653a20636f6e7472616374206973206e6f74206960408201526a6e697469616c697a696e6760a81b606082015260800190565b6001600160a01b0386811682528516602082015260a060408201819052600090614bc890830186614091565b8281036060840152614bda8186614091565b90508281036080840152614bee8185613c44565b98975050505050505050565b600060208284031215614c0c57600080fd5b81516114ba81613bd4565b600060033d11156110f45760046000803e5060005160e01c90565b600060443d1015614c405790565b6040516003193d81016004833e81513d6001600160401b038160248401118184111715614c6f57505050505090565b8285019150815181811115614c875750505050505090565b843d8701016020828501011115614ca15750505050505090565b614cb060208286010187613c99565b509095945050505050565b60208082526028908201527f455243313135353a204552433131353552656365697665722072656a656374656040820152676420746f6b656e7360c01b606082015260800190565b7f416363657373436f6e74726f6c3a206163636f756e7420000000000000000000815260008351614d3b816017850160208801613c20565b7001034b99036b4b9b9b4b733903937b6329607d1b6017918401918201528351614d6c816028840160208801613c20565b01602801949350505050565b634e487b7160e01b600052602160045260246000fd5b6001600160a01b03868116825285166020820152604081018490526060810183905260a060808201819052600090614dc890830184613c44565b979650505050505050565b80820281158282048414176109735761097361468a565b600081614df957614df961468a565b506000190190565b634e487b7160e01b600052603160045260246000fd5b60008251614e29818460208701613c20565b919091019291505056fe3e56e9a6f888cc93e5cca7cc0196dca8b71b670e9b1090643c8d42bed8a5d800360894a13ba1a3210667c828492db98dca3e2076cc3735a920a3ca505d382bbc416464726573733a206c6f772d6c6576656c2064656c65676174652063616c6c206661696c6564a26469706673582212209a2c497a510eff72d900d0e229f5484de28b9f7d0284d15b4fedf487ccf2ea7964736f6c63430008140033",
  "linkReferences": {},
  "deployedLinkReferences": {}
}