{
  "_format": "hh-sol-artifact-1",
  "contractName": "Gacha",
  "sourceName": "contracts/Gacha.sol",
  "abi": [
    {
      "anonymous": false,
      "inputs": [
        {
          "indexed": false,
          "internalType": "address",
          "name": "previousAdmin",
          "type": "address"
        },
        {
          "indexed": false,
          "internalType": "address",
          "name": "newAdmin",
          "type": "address"
        }
      ],
      "name": "AdminChanged",
      "type": "event"
    },
    {
      "anonymous": false,
      "inputs": [
        {
          "indexed": true,
          "internalType": "address",
          "name": "beacon",
          "type": "address"
        }
      ],
      "name": "BeaconUpgraded",
      "type": "event"
    },
    {
      "anonymous": false,
      "inputs": [],
      "name": "EIP712DomainChanged",
      "type": "event"
    },
    {
      "anonymous": false,
      "inputs": [
        {
          "indexed": true,
          "internalType": "address",
          "name": "userAddress",
          "type": "address"
        },
        {
          "indexed": false,
          "internalType": "uint256",
          "name": "claimPrizeId",
          "type": "uint256"
        },
        {
          "indexed": false,
          "internalType": "bytes",
          "name": "signature",
          "type": "bytes"
        }
      ],
      "name": "GachaPrizeClaim",
      "type": "event"
    },
    {
      "anonymous": false,
      "inputs": [
        {
          "indexed": true,
          "internalType": "address",
          "name": "userAddress",
          "type": "address"
        },
        {
          "indexed": false,
          "internalType": "uint256",
          "name": "claimTicketId",
          "type": "uint256"
        },
        {
          "indexed": false,
          "internalType": "bytes",
          "name": "signature",
          "type": "bytes"
        }
      ],
      "name": "GachaTicketClaim",
      "type": "event"
    },
    {
      "anonymous": false,
      "inputs": [
        {
          "indexed": false,
          "internalType": "uint8",
          "name": "version",
          "type": "uint8"
        }
      ],
      "name": "Initialized",
      "type": "event"
    },
    {
      "anonymous": false,
      "inputs": [
        {
          "indexed": true,
          "internalType": "address",
          "name": "previousOwner",
          "type": "address"
        },
        {
          "indexed": true,
          "internalType": "address",
          "name": "newOwner",
          "type": "address"
        }
      ],
      "name": "OwnershipTransferred",
      "type": "event"
    },
    {
      "anonymous": false,
      "inputs": [
        {
          "indexed": true,
          "internalType": "address",
          "name": "tokenAddress",
          "type": "address"
        },
        {
          "indexed": false,
          "internalType": "uint256",
          "name": "amount",
          "type": "uint256"
        },
        {
          "indexed": true,
          "internalType": "address",
          "name": "to",
          "type": "address"
        }
      ],
      "name": "RewardTokenWithdrawn",
      "type": "event"
    },
    {
      "anonymous": false,
      "inputs": [
        {
          "indexed": true,
          "internalType": "address",
          "name": "tokenAddress",
          "type": "address"
        }
      ],
      "name": "SetRewardToken",
      "type": "event"
    },
    {
      "anonymous": false,
      "inputs": [
        {
          "indexed": true,
          "internalType": "address",
          "name": "implementation",
          "type": "address"
        }
      ],
      "name": "Upgraded",
      "type": "event"
    },
    {
      "inputs": [],
      "name": "GACHA_TYPEHASH",
      "outputs": [
        {
          "internalType": "bytes32",
          "name": "",
          "type": "bytes32"
        }
      ],
      "stateMutability": "view",
      "type": "function"
    },
    {
      "inputs": [
        {
          "internalType": "uint256",
          "name": "claimPrizeId",
          "type": "uint256"
        },
        {
          "internalType": "address",
          "name": "tokenAddress",
          "type": "address"
        },
        {
          "internalType": "uint256",
          "name": "rewardAmount",
          "type": "uint256"
        },
        {
          "internalType": "bytes",
          "name": "signature",
          "type": "bytes"
        },
        {
          "internalType": "bytes32",
          "name": "salt",
          "type": "bytes32"
        }
      ],
      "name": "claimPrize",
      "outputs": [],
      "stateMutability": "nonpayable",
      "type": "function"
    },
    {
      "inputs": [
        {
          "internalType": "uint256",
          "name": "claimTicketId",
          "type": "uint256"
        },
        {
          "internalType": "bytes",
          "name": "signature",
          "type": "bytes"
        },
        {
          "internalType": "bytes32",
          "name": "salt",
          "type": "bytes32"
        }
      ],
      "name": "claimTicket",
      "outputs": [],
      "stateMutability": "nonpayable",
      "type": "function"
    },
    {
      "inputs": [],
      "name": "eip712Domain",
      "outputs": [
        {
          "internalType": "bytes1",
          "name": "fields",
          "type": "bytes1"
        },
        {
          "internalType": "string",
          "name": "name",
          "type": "string"
        },
        {
          "internalType": "string",
          "name": "version",
          "type": "string"
        },
        {
          "internalType": "uint256",
          "name": "chainId",
          "type": "uint256"
        },
        {
          "internalType": "address",
          "name": "verifyingContract",
          "type": "address"
        },
        {
          "internalType": "bytes32",
          "name": "salt",
          "type": "bytes32"
        },
        {
          "internalType": "uint256[]",
          "name": "extensions",
          "type": "uint256[]"
        }
      ],
      "stateMutability": "view",
      "type": "function"
    },
    {
      "inputs": [],
      "name": "initialize",
      "outputs": [],
      "stateMutability": "nonpayable",
      "type": "function"
    },
    {
      "inputs": [],
      "name": "owner",
      "outputs": [
        {
          "internalType": "address",
          "name": "",
          "type": "address"
        }
      ],
      "stateMutability": "view",
      "type": "function"
    },
    {
      "inputs": [],
      "name": "proxiableUUID",
      "outputs": [
        {
          "internalType": "bytes32",
          "name": "",
          "type": "bytes32"
        }
      ],
      "stateMutability": "view",
      "type": "function"
    },
    {
      "inputs": [],
      "name": "renounceOwnership",
      "outputs": [],
      "stateMutability": "nonpayable",
      "type": "function"
    },
    {
      "inputs": [
        {
          "internalType": "address",
          "name": "newOwner",
          "type": "address"
        }
      ],
      "name": "transferOwnership",
      "outputs": [],
      "stateMutability": "nonpayable",
      "type": "function"
    },
    {
      "inputs": [
        {
          "internalType": "address",
          "name": "newImplementation",
          "type": "address"
        }
      ],
      "name": "upgradeTo",
      "outputs": [],
      "stateMutability": "nonpayable",
      "type": "function"
    },
    {
      "inputs": [
        {
          "internalType": "address",
          "name": "newImplementation",
          "type": "address"
        },
        {
          "internalType": "bytes",
          "name": "data",
          "type": "bytes"
        }
      ],
      "name": "upgradeToAndCall",
      "outputs": [],
      "stateMutability": "payable",
      "type": "function"
    },
    {
      "inputs": [
        {
          "internalType": "address",
          "name": "userAddress",
          "type": "address"
        },
        {
          "internalType": "uint256",
          "name": "claimId",
          "type": "uint256"
        },
        {
          "internalType": "address",
          "name": "tokenAddress",
          "type": "address"
        },
        {
          "internalType": "uint256",
          "name": "rewardAmount",
          "type": "uint256"
        },
        {
          "internalType": "bytes",
          "name": "signature",
          "type": "bytes"
        },
        {
          "internalType": "bytes32",
          "name": "salt",
          "type": "bytes32"
        }
      ],
      "name": "verifySign",
      "outputs": [
        {
          "internalType": "address",
          "name": "",
          "type": "address"
        }
      ],
      "stateMutability": "view",
      "type": "function"
    },
    {
      "inputs": [
        {
          "internalType": "address",
          "name": "tokenAddress",
          "type": "address"
        },
        {
          "internalType": "uint256",
          "name": "amount",
          "type": "uint256"
        },
        {
          "internalType": "address",
          "name": "to",
          "type": "address"
        }
      ],
      "name": "withdrawTokens",
      "outputs": [],
      "stateMutability": "nonpayable",
      "type": "function"
    }
  ],
  "bytecode": "0x60a06040523060805234801561001457600080fd5b5060805161205061004c60003960008181610274015281816102bd0152818161051c0152818161055c01526105ef01526120506000f3fe6080604052600436106100c25760003560e01c80638129fc1c1161007f5780638da5cb5b116100595780638da5cb5b146101d85780639bc5c5091461020a578063f2fde38b1461022a578063f69cb4701461024a57600080fd5b80638129fc1c1461017b57806384b0196e1461019057806388843c37146101b857600080fd5b80633659cfe6146100c7578063479f0740146100e95780634f1ef2861461010957806352d1902d1461011c578063715018a6146101445780638095bee214610159575b600080fd5b3480156100d357600080fd5b506100e76100e2366004611925565b61026a565b005b3480156100f557600080fd5b506100e7610104366004611982565b610352565b6100e7610117366004611a78565b610512565b34801561012857600080fd5b506101316105e2565b6040519081526020015b60405180910390f35b34801561015057600080fd5b506100e7610695565b34801561016557600080fd5b50610131600080516020611fb483398151915281565b34801561018757600080fd5b506100e76106a9565b34801561019c57600080fd5b506101a5610809565b60405161013b9796959493929190611b16565b3480156101c457600080fd5b506100e76101d3366004611bac565b6108a7565b3480156101e457600080fd5b506097546001600160a01b03165b6040516001600160a01b03909116815260200161013b565b34801561021657600080fd5b506100e7610225366004611c1c565b610bbc565b34801561023657600080fd5b506100e7610245366004611925565b610d8f565b34801561025657600080fd5b506101f2610265366004611c58565b610e05565b6001600160a01b037f00000000000000000000000000000000000000000000000000000000000000001630036102bb5760405162461bcd60e51b81526004016102b290611cd2565b60405180910390fd5b7f00000000000000000000000000000000000000000000000000000000000000006001600160a01b0316610304600080516020611fd4833981519152546001600160a01b031690565b6001600160a01b03161461032a5760405162461bcd60e51b81526004016102b290611d1e565b61033381610e95565b6040805160008082526020820190925261034f91839190610e9d565b50565b60006103b36103608361100d565b60408051600080516020611fb48339815191526020820152339181019190915260608101889052306080820152600060a082015260c0015b604051602081830303815290604052805190602001206110dc565b90506103c76097546001600160a01b031690565b6001600160a01b0316610416338730600089898080601f0160208091040260200160405190810160405280939291908181526020018383808284376000920191909152508b9250610e05915050565b6001600160a01b0316146104605760405162461bcd60e51b8152602060048201526011602482015270496e76616c6964207369676e617475726560781b60448201526064016102b2565b61046c6101318661111d565b156104b95760405162461bcd60e51b815260206004820152601a60248201527f636c61696d5469636b6574496420616c7265616479207573656400000000000060448201526064016102b2565b6104c561013186611138565b50336001600160a01b03167f90055e07cfc06975ceba0c6b76ad47d243c6ee3217fa2af3fa1fe130a657ec8786868660405161050393929190611d6a565b60405180910390a25050505050565b6001600160a01b037f000000000000000000000000000000000000000000000000000000000000000016300361055a5760405162461bcd60e51b81526004016102b290611cd2565b7f00000000000000000000000000000000000000000000000000000000000000006001600160a01b03166105a3600080516020611fd4833981519152546001600160a01b031690565b6001600160a01b0316146105c95760405162461bcd60e51b81526004016102b290611d1e565b6105d282610e95565b6105de82826001610e9d565b5050565b6000306001600160a01b037f000000000000000000000000000000000000000000000000000000000000000016146106825760405162461bcd60e51b815260206004820152603860248201527f555550535570677261646561626c653a206d757374206e6f742062652063616c60448201527f6c6564207468726f7567682064656c656761746563616c6c000000000000000060648201526084016102b2565b50600080516020611fd483398151915290565b61069d611144565b6106a7600061119e565b565b600054610100900460ff16158080156106c95750600054600160ff909116105b806106e35750303b1580156106e3575060005460ff166001145b6107465760405162461bcd60e51b815260206004820152602e60248201527f496e697469616c697a61626c653a20636f6e747261637420697320616c72656160448201526d191e481a5b9a5d1a585b1a5e995960921b60648201526084016102b2565b6000805460ff191660011790558015610769576000805461ff0019166101001790555b6107716111f0565b61077961121f565b610781611246565b6107c160405180604001604052806005815260200164476163686160d81b815250604051806040016040528060018152602001603160f81b815250611275565b801561034f576000805461ff0019169055604051600181527f7f26b83ff96e1f2b6a682f133852f6798a09c465da95921460cefb38474024989060200160405180910390a150565b60006060806000806000606060c9546000801b148015610829575060ca54155b61086d5760405162461bcd60e51b81526020600482015260156024820152741152540dcc4c8e88155b9a5b9a5d1a585b1a5e9959605a1b60448201526064016102b2565b6108756112a6565b61087d611338565b60408051600080825260208201909252600f60f81b9b939a50919850469750309650945092509050565b60006108fa6108b58361100d565b60408051600080516020611fb483398151915260208201523391810191909152606081018a90526001600160a01b038916608082015260a0810188905260c001610398565b905061090e6097546001600160a01b031690565b6001600160a01b031661095c3389898989898080601f0160208091040260200160405190810160405280939291908181526020018383808284376000920191909152508b9250610e05915050565b6001600160a01b0316146109a65760405162461bcd60e51b8152602060048201526011602482015270496e76616c6964207369676e617475726560781b60448201526064016102b2565b6109b261012f8861111d565b156109f65760405162461bcd60e51b815260206004820152601460248201527318db185a5b525908185b1c9958591e481d5cd95960621b60448201526064016102b2565b610a0261012f88611138565b506001600160a01b0386163014801590610a1c5750600085115b15610b6e576040516370a0823160e01b8152306004820152869086906001600160a01b038316906370a0823190602401602060405180830381865afa158015610a69573d6000803e3d6000fd5b505050506040513d601f19601f82011682018060405250810190610a8d9190611da0565b1015610aea5760405162461bcd60e51b815260206004820152602660248201527f496e73756666696369656e7420746f6b656e2062616c616e636520696e20636f6044820152651b9d1c9858dd60d21b60648201526084016102b2565b6001600160a01b03811663a9059cbb336040516001600160e01b031960e084901b1681526001600160a01b039091166004820152602481018990526044016020604051808303816000875af1158015610b47573d6000803e3d6000fd5b505050506040513d601f19601f82011682018060405250810190610b6b9190611db9565b50505b336001600160a01b03167ff500004b367984e39d81ed9fbab5fa9caa9058db9f483f86012926c355225ba8888686604051610bab93929190611d6a565b60405180910390a250505050505050565b610bc4611144565b6001600160a01b038116610c1a5760405162461bcd60e51b815260206004820152601f60248201527f43616e6e6f7420776974686472617720746f207a65726f20616464726573730060448201526064016102b2565b6040516370a0823160e01b815230600482015282906001600160a01b038516906370a0823190602401602060405180830381865afa158015610c60573d6000803e3d6000fd5b505050506040513d601f19601f82011682018060405250810190610c849190611da0565b1015610cc95760405162461bcd60e51b8152602060048201526014602482015273496e73756666696369656e742062616c616e636560601b60448201526064016102b2565b60405163a9059cbb60e01b81526001600160a01b0382811660048301526024820184905284169063a9059cbb906044016020604051808303816000875af1158015610d18573d6000803e3d6000fd5b505050506040513d601f19601f82011682018060405250810190610d3c9190611db9565b50806001600160a01b0316836001600160a01b03167f5196c8b5e155909dbe5bdc38206ede5b624d7f9e5db0ea3ddecb2773e75109e184604051610d8291815260200190565b60405180910390a3505050565b610d97611144565b6001600160a01b038116610dfc5760405162461bcd60e51b815260206004820152602660248201527f4f776e61626c653a206e6577206f776e657220697320746865207a65726f206160448201526564647265737360d01b60648201526084016102b2565b61034f8161119e565b60408051600080516020611fb48339815191526020808301919091526001600160a01b0389811683850152606083018990528716608083015260a08083018790528351808403909101815260c0909201909252805191012060009081610e6a8461100d565b90506000610e7882846110dc565b90506000610e868288611347565b9b9a5050505050505050505050565b61034f611144565b7f4910fdfa16fed3260ed0e7147f7cc6da11a60208b5b9406d12a635614ffd91435460ff1615610ed557610ed08361136b565b505050565b826001600160a01b03166352d1902d6040518163ffffffff1660e01b8152600401602060405180830381865afa925050508015610f2f575060408051601f3d908101601f19168201909252610f2c91810190611da0565b60015b610f925760405162461bcd60e51b815260206004820152602e60248201527f45524331393637557067726164653a206e657720696d706c656d656e7461746960448201526d6f6e206973206e6f74205555505360901b60648201526084016102b2565b600080516020611fd483398151915281146110015760405162461bcd60e51b815260206004820152602960248201527f45524331393637557067726164653a20756e737570706f727465642070726f786044820152681a58589b195555525160ba1b60648201526084016102b2565b50610ed0838383611407565b6040805180820182526005815264476163686160d81b6020918201528151808301835260018152603160f81b9082015281517fd87cd6ef79d4e2b95e15ce8abf732db51ec771f1ca2edccf22a46c729ac56472818301527f36c013aafabd2e406a94412074bcd8b1d5c636cbafad4c8e794d6342c60a77d5818401527fc89efdaa54c0f20c7adf612882df0950f5a951637e0307cdcb4c672f298b8bc660608201524660808201523060a082015260c0808201949094528251808203909401845260e001909152815191012090565b60405161190160f01b602082015260228101839052604281018290526000906062016040516020818303038152906040528051906020012090505b92915050565b600081815260018301602052604081205415155b9392505050565b60006111318383611432565b6097546001600160a01b031633146106a75760405162461bcd60e51b815260206004820181905260248201527f4f776e61626c653a2063616c6c6572206973206e6f7420746865206f776e657260448201526064016102b2565b609780546001600160a01b038381166001600160a01b0319831681179093556040519116919082907f8be0079c531659141344cd1fd0a4f28419497f9722a3daafe3b4186f6b6457e090600090a35050565b600054610100900460ff166112175760405162461bcd60e51b81526004016102b290611ddb565b6106a7611481565b600054610100900460ff166106a75760405162461bcd60e51b81526004016102b290611ddb565b600054610100900460ff1661126d5760405162461bcd60e51b81526004016102b290611ddb565b6106a76114b1565b600054610100900460ff1661129c5760405162461bcd60e51b81526004016102b290611ddb565b6105de82826114df565b606060cb80546112b590611e26565b80601f01602080910402602001604051908101604052809291908181526020018280546112e190611e26565b801561132e5780601f106113035761010080835404028352916020019161132e565b820191906000526020600020905b81548152906001019060200180831161131157829003601f168201915b5050505050905090565b606060cc80546112b590611e26565b6000806000611356858561152e565b9150915061136381611573565b509392505050565b6001600160a01b0381163b6113d85760405162461bcd60e51b815260206004820152602d60248201527f455243313936373a206e657720696d706c656d656e746174696f6e206973206e60448201526c1bdd08184818dbdb9d1c9858dd609a1b60648201526084016102b2565b600080516020611fd483398151915280546001600160a01b0319166001600160a01b0392909216919091179055565b611410836116bd565b60008251118061141d5750805b15610ed05761142c83836116fd565b50505050565b600081815260018301602052604081205461147957508154600181810184556000848152602080822090930184905584548482528286019093526040902091909155611117565b506000611117565b600054610100900460ff166114a85760405162461bcd60e51b81526004016102b290611ddb565b6106a73361119e565b600054610100900460ff166114d85760405162461bcd60e51b81526004016102b290611ddb565b600160fd55565b600054610100900460ff166115065760405162461bcd60e51b81526004016102b290611ddb565b60cb6115128382611eae565b5060cc61151f8282611eae565b5050600060c981905560ca5550565b60008082516041036115645760208301516040840151606085015160001a61155887828585611722565b9450945050505061156c565b506000905060025b9250929050565b600081600481111561158757611587611f6e565b0361158f5750565b60018160048111156115a3576115a3611f6e565b036115f05760405162461bcd60e51b815260206004820152601860248201527f45434453413a20696e76616c6964207369676e6174757265000000000000000060448201526064016102b2565b600281600481111561160457611604611f6e565b036116515760405162461bcd60e51b815260206004820152601f60248201527f45434453413a20696e76616c6964207369676e6174757265206c656e6774680060448201526064016102b2565b600381600481111561166557611665611f6e565b0361034f5760405162461bcd60e51b815260206004820152602260248201527f45434453413a20696e76616c6964207369676e6174757265202773272076616c604482015261756560f01b60648201526084016102b2565b6116c68161136b565b6040516001600160a01b038216907fbc7cd75a20ee27fd9adebab32041f755214dbc6bffa90cc0225b39da2e5c2d3b90600090a250565b60606111318383604051806060016040528060278152602001611ff4602791396117e6565b6000807f7fffffffffffffffffffffffffffffff5d576e7357a4501ddfe92f46681b20a083111561175957506000905060036117dd565b6040805160008082526020820180845289905260ff881692820192909252606081018690526080810185905260019060a0016020604051602081039080840390855afa1580156117ad573d6000803e3d6000fd5b5050604051601f1901519150506001600160a01b0381166117d6576000600192509250506117dd565b9150600090505b94509492505050565b6060600080856001600160a01b0316856040516118039190611f84565b600060405180830381855af49150503d806000811461183e576040519150601f19603f3d011682016040523d82523d6000602084013e611843565b606091505b50915091506118548683838761185e565b9695505050505050565b606083156118cd5782516000036118c6576001600160a01b0385163b6118c65760405162461bcd60e51b815260206004820152601d60248201527f416464726573733a2063616c6c20746f206e6f6e2d636f6e747261637400000060448201526064016102b2565b50816118d7565b6118d783836118df565b949350505050565b8151156118ef5781518083602001fd5b8060405162461bcd60e51b81526004016102b29190611fa0565b80356001600160a01b038116811461192057600080fd5b919050565b60006020828403121561193757600080fd5b61113182611909565b60008083601f84011261195257600080fd5b50813567ffffffffffffffff81111561196a57600080fd5b60208301915083602082850101111561156c57600080fd5b6000806000806060858703121561199857600080fd5b84359350602085013567ffffffffffffffff8111156119b657600080fd5b6119c287828801611940565b9598909750949560400135949350505050565b634e487b7160e01b600052604160045260246000fd5b600082601f8301126119fc57600080fd5b813567ffffffffffffffff80821115611a1757611a176119d5565b604051601f8301601f19908116603f01168101908282118183101715611a3f57611a3f6119d5565b81604052838152866020858801011115611a5857600080fd5b836020870160208301376000602085830101528094505050505092915050565b60008060408385031215611a8b57600080fd5b611a9483611909565b9150602083013567ffffffffffffffff811115611ab057600080fd5b611abc858286016119eb565b9150509250929050565b60005b83811015611ae1578181015183820152602001611ac9565b50506000910152565b60008151808452611b02816020860160208601611ac6565b601f01601f19169290920160200192915050565b60ff60f81b881681526000602060e081840152611b3660e084018a611aea565b8381036040850152611b48818a611aea565b606085018990526001600160a01b038816608086015260a0850187905284810360c0860152855180825283870192509083019060005b81811015611b9a57835183529284019291840191600101611b7e565b50909c9b505050505050505050505050565b60008060008060008060a08789031215611bc557600080fd5b86359550611bd560208801611909565b945060408701359350606087013567ffffffffffffffff811115611bf857600080fd5b611c0489828a01611940565b979a9699509497949695608090950135949350505050565b600080600060608486031215611c3157600080fd5b611c3a84611909565b925060208401359150611c4f60408501611909565b90509250925092565b60008060008060008060c08789031215611c7157600080fd5b611c7a87611909565b955060208701359450611c8f60408801611909565b935060608701359250608087013567ffffffffffffffff811115611cb257600080fd5b611cbe89828a016119eb565b92505060a087013590509295509295509295565b6020808252602c908201527f46756e6374696f6e206d7573742062652063616c6c6564207468726f7567682060408201526b19195b1959d85d1958d85b1b60a21b606082015260800190565b6020808252602c908201527f46756e6374696f6e206d7573742062652063616c6c6564207468726f7567682060408201526b6163746976652070726f787960a01b606082015260800190565b83815260406020820152816040820152818360608301376000818301606090810191909152601f909201601f1916010192915050565b600060208284031215611db257600080fd5b5051919050565b600060208284031215611dcb57600080fd5b8151801515811461113157600080fd5b6020808252602b908201527f496e697469616c697a61626c653a20636f6e7472616374206973206e6f74206960408201526a6e697469616c697a696e6760a81b606082015260800190565b600181811c90821680611e3a57607f821691505b602082108103611e5a57634e487b7160e01b600052602260045260246000fd5b50919050565b601f821115610ed057600081815260208120601f850160051c81016020861015611e875750805b601f850160051c820191505b81811015611ea657828155600101611e93565b505050505050565b815167ffffffffffffffff811115611ec857611ec86119d5565b611edc81611ed68454611e26565b84611e60565b602080601f831160018114611f115760008415611ef95750858301515b600019600386901b1c1916600185901b178555611ea6565b600085815260208120601f198616915b82811015611f4057888601518255948401946001909101908401611f21565b5085821015611f5e5787850151600019600388901b60f8161c191681555b5050505050600190811b01905550565b634e487b7160e01b600052602160045260246000fd5b60008251611f96818460208701611ac6565b9190910192915050565b6020815260006111316020830184611aea56feedc5489951358ca82654775286254bea8c2341e0701297a141f37fa9147962a6360894a13ba1a3210667c828492db98dca3e2076cc3735a920a3ca505d382bbc416464726573733a206c6f772d6c6576656c2064656c65676174652063616c6c206661696c6564a2646970667358221220dd9d375a65d387ffc2291164ccec549abc67e36a581b43c326bada43a84923df64736f6c63430008140033",
  "linkReferences": {},
  "deployedLinkReferences": {}
}