{
  "_format": "hh-sol-artifact-1",
  "contractName": "OvertakeQuiz",
  "sourceName": "contracts/OvertakeQuiz.sol",
  "abi": [
    {
      "anonymous": false,
      "inputs": [
        {
          "indexed": false,
          "internalType": "uint8",
          "name": "version",
          "type": "uint8"
        }
      ],
      "name": "Initialized",
      "type": "event"
    },
    {
      "anonymous": false,
      "inputs": [
        {
          "indexed": true,
          "internalType": "address",
          "name": "previousOwner",
          "type": "address"
        },
        {
          "indexed": true,
          "internalType": "address",
          "name": "newOwner",
          "type": "address"
        }
      ],
      "name": "OwnershipTransferred",
      "type": "event"
    },
    {
      "anonymous": false,
      "inputs": [
        {
          "indexed": true,
          "internalType": "address",
          "name": "participant",
          "type": "address"
        }
      ],
      "name": "QuizCompleted",
      "type": "event"
    },
    {
      "inputs": [
        {
          "internalType": "address",
          "name": "participant",
          "type": "address"
        }
      ],
      "name": "getLastParticipation",
      "outputs": [
        {
          "internalType": "uint256",
          "name": "",
          "type": "uint256"
        }
      ],
      "stateMutability": "view",
      "type": "function"
    },
    {
      "inputs": [],
      "name": "getParticipantCount",
      "outputs": [
        {
          "internalType": "uint256",
          "name": "",
          "type": "uint256"
        }
      ],
      "stateMutability": "view",
      "type": "function"
    },
    {
      "inputs": [],
      "name": "initialize",
      "outputs": [],
      "stateMutability": "nonpayable",
      "type": "function"
    },
    {
      "inputs": [],
      "name": "owner",
      "outputs": [
        {
          "internalType": "address",
          "name": "",
          "type": "address"
        }
      ],
      "stateMutability": "view",
      "type": "function"
    },
    {
      "inputs": [],
      "name": "participateInQuiz",
      "outputs": [],
      "stateMutability": "nonpayable",
      "type": "function"
    },
    {
      "inputs": [],
      "name": "renounceOwnership",
      "outputs": [],
      "stateMutability": "nonpayable",
      "type": "function"
    },
    {
      "inputs": [
        {
          "internalType": "address",
          "name": "newOwner",
          "type": "address"
        }
      ],
      "name": "transferOwnership",
      "outputs": [],
      "stateMutability": "nonpayable",
      "type": "function"
    }
  ],
  "bytecode": "0x608060405234801561001057600080fd5b506107b0806100206000396000f3fe608060405234801561001057600080fd5b506004361061007d5760003560e01c80638129fc1c1161005b5780638129fc1c146100ba5780638da5cb5b146100c2578063ad605729146100dd578063f2fde38b146100e557600080fd5b80631b131c7114610082578063463e7fb3146100a8578063715018a6146100b2575b600080fd5b610095610090366004610691565b6100f8565b6040519081526020015b60405180910390f35b6100b0610172565b005b6100b0610279565b6100b061028d565b6033546040516001600160a01b03909116815260200161009f565b61009561039e565b6100b06100f3366004610691565b6103af565b60008080610107606785610425565b915091508161016b5760405162461bcd60e51b815260206004820152602560248201527f4e6f2070617274696369706174696f6e207265636f726420666f722074686973604482015264103ab9b2b960d91b60648201526084015b60405180910390fd5b9392505050565b6000610e106201518061018542836106d0565b61018f91906106e3565b61019c9062015180610705565b6101a6919061071c565b90506000806101b6606733610425565b915091508115806101c657508281105b6102205760405162461bcd60e51b815260206004820152602560248201527f596f752063616e206f6e6c79207061727469636970617465206f6e6365207065604482015264722064617960d81b6064820152608401610162565b61022b60653361044c565b61023c5761023a606533610473565b505b61024860673342610488565b5060405133907f820679b4d4510cf6223b9476e8ffc8320043abf1b1df405a2a5844c32478d30f90600090a2505050565b6102816104a6565b61028b6000610500565b565b600054610100900460ff16158080156102ad5750600054600160ff909116105b806102c75750303b1580156102c7575060005460ff166001145b61032a5760405162461bcd60e51b815260206004820152602e60248201527f496e697469616c697a61626c653a20636f6e747261637420697320616c72656160448201526d191e481a5b9a5d1a585b1a5e995960921b6064820152608401610162565b6000805460ff19166001179055801561034d576000805461ff0019166101001790555b610355610552565b801561039b576000805461ff0019169055604051600181527f7f26b83ff96e1f2b6a682f133852f6798a09c465da95921460cefb38474024989060200160405180910390a15b50565b60006103aa6065610581565b905090565b6103b76104a6565b6001600160a01b03811661041c5760405162461bcd60e51b815260206004820152602660248201527f4f776e61626c653a206e6577206f776e657220697320746865207a65726f206160448201526564647265737360d01b6064820152608401610162565b61039b81610500565b600080808061043d866001600160a01b03871661058b565b909450925050505b9250929050565b6001600160a01b038116600090815260018301602052604081205415155b90505b92915050565b600061046a836001600160a01b0384166105c5565b600061049e846001600160a01b03851684610614565b949350505050565b6033546001600160a01b0316331461028b5760405162461bcd60e51b815260206004820181905260248201527f4f776e61626c653a2063616c6c6572206973206e6f7420746865206f776e65726044820152606401610162565b603380546001600160a01b038381166001600160a01b0319831681179093556040519116919082907f8be0079c531659141344cd1fd0a4f28419497f9722a3daafe3b4186f6b6457e090600090a35050565b600054610100900460ff166105795760405162461bcd60e51b81526004016101629061072f565b61028b610631565b600061046d825490565b60008181526002830160205260408120548190806105ba576105ad8585610661565b9250600091506104459050565b600192509050610445565b600081815260018301602052604081205461060c5750815460018181018455600084815260208082209093018490558454848252828601909352604090209190915561046d565b50600061046d565b6000828152600284016020526040812082905561049e848461066d565b600054610100900460ff166106585760405162461bcd60e51b81526004016101629061072f565b61028b33610500565b600061046a8383610679565b600061046a83836105c5565b6000818152600183016020526040812054151561046a565b6000602082840312156106a357600080fd5b81356001600160a01b038116811461016b57600080fd5b634e487b7160e01b600052601160045260246000fd5b8082018082111561046d5761046d6106ba565b60008261070057634e487b7160e01b600052601260045260246000fd5b500490565b808202811582820484141761046d5761046d6106ba565b8181038181111561046d5761046d6106ba565b6020808252602b908201527f496e697469616c697a61626c653a20636f6e7472616374206973206e6f74206960408201526a6e697469616c697a696e6760a81b60608201526080019056fea2646970667358221220ec90a1f507d7340e5f1e0bc6580bd3775f69a1e442c4829b4b3cb3c0927c852c64736f6c63430008140033",
  "linkReferences": {},
  "deployedLinkReferences": {}
}