{
  "_format": "hh-sol-artifact-1",
  "contractName": "LuckyDraw",
  "sourceName": "contracts/LuckyDraw.sol",
  "abi": [
    {
      "anonymous": false,
      "inputs": [
        {
          "indexed": false,
          "internalType": "address",
          "name": "previousAdmin",
          "type": "address"
        },
        {
          "indexed": false,
          "internalType": "address",
          "name": "newAdmin",
          "type": "address"
        }
      ],
      "name": "AdminChanged",
      "type": "event"
    },
    {
      "anonymous": false,
      "inputs": [
        {
          "indexed": true,
          "internalType": "address",
          "name": "beacon",
          "type": "address"
        }
      ],
      "name": "BeaconUpgraded",
      "type": "event"
    },
    {
      "anonymous": false,
      "inputs": [],
      "name": "EIP712DomainChanged",
      "type": "event"
    },
    {
      "anonymous": false,
      "inputs": [
        {
          "indexed": false,
          "internalType": "uint8",
          "name": "version",
          "type": "uint8"
        }
      ],
      "name": "Initialized",
      "type": "event"
    },
    {
      "anonymous": false,
      "inputs": [
        {
          "indexed": true,
          "internalType": "address",
          "name": "userAddress",
          "type": "address"
        },
        {
          "indexed": false,
          "internalType": "uint256",
          "name": "amount",
          "type": "uint256"
        },
        {
          "indexed": false,
          "internalType": "bytes",
          "name": "signature",
          "type": "bytes"
        }
      ],
      "name": "LuckyDrawClaim",
      "type": "event"
    },
    {
      "anonymous": false,
      "inputs": [
        {
          "indexed": true,
          "internalType": "address",
          "name": "previousOwner",
          "type": "address"
        },
        {
          "indexed": true,
          "internalType": "address",
          "name": "newOwner",
          "type": "address"
        }
      ],
      "name": "OwnershipTransferred",
      "type": "event"
    },
    {
      "anonymous": false,
      "inputs": [
        {
          "indexed": true,
          "internalType": "address",
          "name": "apToken",
          "type": "address"
        }
      ],
      "name": "SetAPToken",
      "type": "event"
    },
    {
      "anonymous": false,
      "inputs": [
        {
          "indexed": true,
          "internalType": "address",
          "name": "implementation",
          "type": "address"
        }
      ],
      "name": "Upgraded",
      "type": "event"
    },
    {
      "inputs": [],
      "name": "DRAW_TYPEHASH",
      "outputs": [
        {
          "internalType": "bytes32",
          "name": "",
          "type": "bytes32"
        }
      ],
      "stateMutability": "view",
      "type": "function"
    },
    {
      "inputs": [],
      "name": "apToken",
      "outputs": [
        {
          "internalType": "contract IAp",
          "name": "",
          "type": "address"
        }
      ],
      "stateMutability": "view",
      "type": "function"
    },
    {
      "inputs": [
        {
          "internalType": "uint256",
          "name": "rewardAmount",
          "type": "uint256"
        },
        {
          "internalType": "bytes",
          "name": "signature",
          "type": "bytes"
        },
        {
          "internalType": "bytes32",
          "name": "salt",
          "type": "bytes32"
        }
      ],
      "name": "claim",
      "outputs": [],
      "stateMutability": "nonpayable",
      "type": "function"
    },
    {
      "inputs": [
        {
          "internalType": "uint256",
          "name": "rewardAmount",
          "type": "uint256"
        },
        {
          "internalType": "bytes",
          "name": "signature",
          "type": "bytes"
        },
        {
          "internalType": "bytes32",
          "name": "salt",
          "type": "bytes32"
        }
      ],
      "name": "claimWithAp",
      "outputs": [],
      "stateMutability": "nonpayable",
      "type": "function"
    },
    {
      "inputs": [],
      "name": "eip712Domain",
      "outputs": [
        {
          "internalType": "bytes1",
          "name": "fields",
          "type": "bytes1"
        },
        {
          "internalType": "string",
          "name": "name",
          "type": "string"
        },
        {
          "internalType": "string",
          "name": "version",
          "type": "string"
        },
        {
          "internalType": "uint256",
          "name": "chainId",
          "type": "uint256"
        },
        {
          "internalType": "address",
          "name": "verifyingContract",
          "type": "address"
        },
        {
          "internalType": "bytes32",
          "name": "salt",
          "type": "bytes32"
        },
        {
          "internalType": "uint256[]",
          "name": "extensions",
          "type": "uint256[]"
        }
      ],
      "stateMutability": "view",
      "type": "function"
    },
    {
      "inputs": [],
      "name": "initialize",
      "outputs": [],
      "stateMutability": "nonpayable",
      "type": "function"
    },
    {
      "inputs": [],
      "name": "maxDrawsPerDay",
      "outputs": [
        {
          "internalType": "uint256",
          "name": "",
          "type": "uint256"
        }
      ],
      "stateMutability": "view",
      "type": "function"
    },
    {
      "inputs": [],
      "name": "owner",
      "outputs": [
        {
          "internalType": "address",
          "name": "",
          "type": "address"
        }
      ],
      "stateMutability": "view",
      "type": "function"
    },
    {
      "inputs": [],
      "name": "participationFee",
      "outputs": [
        {
          "internalType": "uint256",
          "name": "",
          "type": "uint256"
        }
      ],
      "stateMutability": "view",
      "type": "function"
    },
    {
      "inputs": [],
      "name": "proxiableUUID",
      "outputs": [
        {
          "internalType": "bytes32",
          "name": "",
          "type": "bytes32"
        }
      ],
      "stateMutability": "view",
      "type": "function"
    },
    {
      "inputs": [],
      "name": "renounceOwnership",
      "outputs": [],
      "stateMutability": "nonpayable",
      "type": "function"
    },
    {
      "inputs": [
        {
          "internalType": "address",
          "name": "_apToken",
          "type": "address"
        }
      ],
      "name": "setAPToken",
      "outputs": [],
      "stateMutability": "nonpayable",
      "type": "function"
    },
    {
      "inputs": [
        {
          "internalType": "uint256",
          "name": "_maxDrawsPerDay",
          "type": "uint256"
        }
      ],
      "name": "setMaxDrawsPerDay",
      "outputs": [],
      "stateMutability": "nonpayable",
      "type": "function"
    },
    {
      "inputs": [
        {
          "internalType": "uint256",
          "name": "_participationFee",
          "type": "uint256"
        }
      ],
      "name": "setParticipationFee",
      "outputs": [],
      "stateMutability": "nonpayable",
      "type": "function"
    },
    {
      "inputs": [
        {
          "internalType": "address",
          "name": "newOwner",
          "type": "address"
        }
      ],
      "name": "transferOwnership",
      "outputs": [],
      "stateMutability": "nonpayable",
      "type": "function"
    },
    {
      "inputs": [
        {
          "internalType": "address",
          "name": "newImplementation",
          "type": "address"
        }
      ],
      "name": "upgradeTo",
      "outputs": [],
      "stateMutability": "nonpayable",
      "type": "function"
    },
    {
      "inputs": [
        {
          "internalType": "address",
          "name": "newImplementation",
          "type": "address"
        },
        {
          "internalType": "bytes",
          "name": "data",
          "type": "bytes"
        }
      ],
      "name": "upgradeToAndCall",
      "outputs": [],
      "stateMutability": "payable",
      "type": "function"
    },
    {
      "inputs": [
        {
          "internalType": "address",
          "name": "userAddress",
          "type": "address"
        },
        {
          "internalType": "uint256",
          "name": "amount",
          "type": "uint256"
        },
        {
          "internalType": "bytes",
          "name": "signature",
          "type": "bytes"
        },
        {
          "internalType": "bytes32",
          "name": "salt",
          "type": "bytes32"
        }
      ],
      "name": "verifySign",
      "outputs": [
        {
          "internalType": "address",
          "name": "",
          "type": "address"
        }
      ],
      "stateMutability": "view",
      "type": "function"
    }
  ],
  "bytecode": "0x60a06040523060805234801561001457600080fd5b50608051611e3c61004c600039600081816106f901528181610739015281816107e60152818161082601526108b90152611e3c6000f3fe6080604052600436106101095760003560e01c8063715018a6116100955780638da5cb5b116100645780638da5cb5b146102c15780639bb5ce30146102df578063c88098f2146102f6578063eb5bd16014610316578063f2fde38b1461033657600080fd5b8063715018a61461024f57806375f4aa83146102645780638129fc1c1461028457806384b0196e1461029957600080fd5b80633659cfe6116100dc5780633659cfe6146101ae57806344a89874146101ce5780634f1ef286146101ee57806351982f5e1461020157806352d1902d1461023a57600080fd5b80632082ae7c1461010e578063240ffbb41461013057806329ed49d71461015a578063309481be1461018e575b600080fd5b34801561011a57600080fd5b5061012e6101293660046117f8565b610356565b005b34801561013c57600080fd5b5061014761012f5481565b6040519081526020015b60405180910390f35b34801561016657600080fd5b506101477ff2f4401bf3eb1ec268ef28cdcf1f5b7d7a6c44d02aa6e78d14bf7a7ac52d5a2281565b34801561019a57600080fd5b5061012e6101a93660046117f8565b610515565b3480156101ba57600080fd5b5061012e6101c9366004611896565b6106ef565b3480156101da57600080fd5b5061012e6101e93660046118b1565b6107ce565b61012e6101fc36600461196d565b6107dc565b34801561020d57600080fd5b5061013154610222906001600160a01b031681565b6040516001600160a01b039091168152602001610151565b34801561024657600080fd5b506101476108ac565b34801561025b57600080fd5b5061012e61095f565b34801561027057600080fd5b5061022261027f3660046119bb565b610973565b34801561029057600080fd5b5061012e610a0b565b3480156102a557600080fd5b506102ae610b6f565b6040516101519796959493929190611a6a565b3480156102cd57600080fd5b506097546001600160a01b0316610222565b3480156102eb57600080fd5b506101476101305481565b34801561030257600080fd5b5061012e6103113660046118b1565b610c0d565b34801561032257600080fd5b5061012e610331366004611896565b610c1b565b34801561034257600080fd5b5061012e610351366004611896565b610cc4565b60006103bb61036483610d3a565b604080517ff2f4401bf3eb1ec268ef28cdcf1f5b7d7a6c44d02aa6e78d14bf7a7ac52d5a22602082015233918101919091526060810188905260800160405160208183030381529060405280519060200120610e0d565b90506103cf6097546001600160a01b031690565b6001600160a01b031661041b338787878080601f016020809104026020016040519081016040528093929190818152602001838380828437600092019190915250899250610973915050565b6001600160a01b03161461046a5760405162461bcd60e51b8152602060048201526011602482015270496e76616c6964207369676e617475726560781b60448201526064015b60405180910390fd5b61047661013282610e4e565b156104bc5760405162461bcd60e51b815260206004820152601660248201527514da59db985d1d5c9948185b1c9958591e481d5cd95960521b6044820152606401610461565b6104c861013282610e69565b50336001600160a01b03167ff286d4fb42738e4fa2627f028db197c985b298af15d84a23c7c2b3bff953996f86868660405161050693929190611b00565b60405180910390a25050505050565b61051d610e75565b600061052b61036483610d3a565b905061053f6097546001600160a01b031690565b6001600160a01b031661058b338787878080601f016020809104026020016040519081016040528093929190818152602001838380828437600092019190915250899250610973915050565b6001600160a01b0316146105d55760405162461bcd60e51b8152602060048201526011602482015270496e76616c6964207369676e617475726560781b6044820152606401610461565b6105e161013282610e4e565b156106275760405162461bcd60e51b815260206004820152601660248201527514da59db985d1d5c9948185b1c9958591e481d5cd95960521b6044820152606401610461565b61063361013282610e69565b50610131546040516340c10f1960e01b8152336004820152602481018790526001600160a01b03909116906340c10f1990604401600060405180830381600087803b15801561068157600080fd5b505af1158015610695573d6000803e3d6000fd5b50505050336001600160a01b03167ff286d4fb42738e4fa2627f028db197c985b298af15d84a23c7c2b3bff953996f8686866040516106d693929190611b00565b60405180910390a2506106e9600160fd55565b50505050565b6001600160a01b037f00000000000000000000000000000000000000000000000000000000000000001630036107375760405162461bcd60e51b815260040161046190611b36565b7f00000000000000000000000000000000000000000000000000000000000000006001600160a01b0316610780600080516020611dc0833981519152546001600160a01b031690565b6001600160a01b0316146107a65760405162461bcd60e51b815260040161046190611b82565b6107af81610ed5565b604080516000808252602082019092526107cb91839190610edd565b50565b6107d661104d565b61012f55565b6001600160a01b037f00000000000000000000000000000000000000000000000000000000000000001630036108245760405162461bcd60e51b815260040161046190611b36565b7f00000000000000000000000000000000000000000000000000000000000000006001600160a01b031661086d600080516020611dc0833981519152546001600160a01b031690565b6001600160a01b0316146108935760405162461bcd60e51b815260040161046190611b82565b61089c82610ed5565b6108a882826001610edd565b5050565b6000306001600160a01b037f0000000000000000000000000000000000000000000000000000000000000000161461094c5760405162461bcd60e51b815260206004820152603860248201527f555550535570677261646561626c653a206d757374206e6f742062652063616c60448201527f6c6564207468726f7567682064656c656761746563616c6c00000000000000006064820152608401610461565b50600080516020611dc083398151915290565b61096761104d565b61097160006110a7565b565b604080517ff2f4401bf3eb1ec268ef28cdcf1f5b7d7a6c44d02aa6e78d14bf7a7ac52d5a2260208201526001600160a01b0386169181019190915260608101849052600090819060800160405160208183030381529060405280519060200120905060006109e084610d3a565b905060006109ee8284610e0d565b905060006109fc82886110f9565b9450505050505b949350505050565b600054610100900460ff1615808015610a2b5750600054600160ff909116105b80610a455750303b158015610a45575060005460ff166001145b610aa85760405162461bcd60e51b815260206004820152602e60248201527f496e697469616c697a61626c653a20636f6e747261637420697320616c72656160448201526d191e481a5b9a5d1a585b1a5e995960921b6064820152608401610461565b6000805460ff191660011790558015610acb576000805461ff0019166101001790555b610ad361111d565b610adb61114c565b610ae3611173565b610b27604051806040016040528060098152602001684c75636b794472617760b81b815250604051806040016040528060018152602001603160f81b8152506111a2565b80156107cb576000805461ff0019169055604051600181527f7f26b83ff96e1f2b6a682f133852f6798a09c465da95921460cefb38474024989060200160405180910390a150565b60006060806000806000606060c9546000801b148015610b8f575060ca54155b610bd35760405162461bcd60e51b81526020600482015260156024820152741152540dcc4c8e88155b9a5b9a5d1a585b1a5e9959605a1b6044820152606401610461565b610bdb6111d3565b610be3611265565b60408051600080825260208201909252600f60f81b9b939a50919850469750309650945092509050565b610c1561104d565b61013055565b610c2361104d565b6001600160a01b038116610c795760405162461bcd60e51b815260206004820152601e60248201527f4150546f6b656e20616464726573732063616e6e6f74206265207a65726f00006044820152606401610461565b61013180546001600160a01b0319166001600160a01b0383169081179091556040517f4bd011ffa760e8e49f998f343bfcfda3ec1aa17911b6d7a41b7a764f441fc14790600090a250565b610ccc61104d565b6001600160a01b038116610d315760405162461bcd60e51b815260206004820152602660248201527f4f776e61626c653a206e6577206f776e657220697320746865207a65726f206160448201526564647265737360d01b6064820152608401610461565b6107cb816110a7565b60408051808201825260098152684c75636b794472617760b81b6020918201528151808301835260018152603160f81b9082015281517fd87cd6ef79d4e2b95e15ce8abf732db51ec771f1ca2edccf22a46c729ac56472818301527f6dece840466f3206e4d9ca9a0c2de84a33a83ea12ba1be64b75199de36d58fa4818401527fc89efdaa54c0f20c7adf612882df0950f5a951637e0307cdcb4c672f298b8bc660608201524660808201523060a082015260c0808201949094528251808203909401845260e001909152815191012090565b60405161190160f01b602082015260228101839052604281018290526000906062016040516020818303038152906040528051906020012090505b92915050565b600081815260018301602052604081205415155b9392505050565b6000610e628383611274565b600260fd5403610ec75760405162461bcd60e51b815260206004820152601f60248201527f5265656e7472616e637947756172643a207265656e7472616e742063616c6c006044820152606401610461565b600260fd55565b600160fd55565b6107cb61104d565b7f4910fdfa16fed3260ed0e7147f7cc6da11a60208b5b9406d12a635614ffd91435460ff1615610f1557610f10836112c3565b505050565b826001600160a01b03166352d1902d6040518163ffffffff1660e01b8152600401602060405180830381865afa925050508015610f6f575060408051601f3d908101601f19168201909252610f6c91810190611bce565b60015b610fd25760405162461bcd60e51b815260206004820152602e60248201527f45524331393637557067726164653a206e657720696d706c656d656e7461746960448201526d6f6e206973206e6f74205555505360901b6064820152608401610461565b600080516020611dc083398151915281146110415760405162461bcd60e51b815260206004820152602960248201527f45524331393637557067726164653a20756e737570706f727465642070726f786044820152681a58589b195555525160ba1b6064820152608401610461565b50610f1083838361135f565b6097546001600160a01b031633146109715760405162461bcd60e51b815260206004820181905260248201527f4f776e61626c653a2063616c6c6572206973206e6f7420746865206f776e65726044820152606401610461565b609780546001600160a01b038381166001600160a01b0319831681179093556040519116919082907f8be0079c531659141344cd1fd0a4f28419497f9722a3daafe3b4186f6b6457e090600090a35050565b60008060006111088585611384565b91509150611115816113c9565b509392505050565b600054610100900460ff166111445760405162461bcd60e51b815260040161046190611be7565b610971611513565b600054610100900460ff166109715760405162461bcd60e51b815260040161046190611be7565b600054610100900460ff1661119a5760405162461bcd60e51b815260040161046190611be7565b610971611543565b600054610100900460ff166111c95760405162461bcd60e51b815260040161046190611be7565b6108a8828261156a565b606060cb80546111e290611c32565b80601f016020809104026020016040519081016040528092919081815260200182805461120e90611c32565b801561125b5780601f106112305761010080835404028352916020019161125b565b820191906000526020600020905b81548152906001019060200180831161123e57829003601f168201915b5050505050905090565b606060cc80546111e290611c32565b60008181526001830160205260408120546112bb57508154600181810184556000848152602080822090930184905584548482528286019093526040902091909155610e48565b506000610e48565b6001600160a01b0381163b6113305760405162461bcd60e51b815260206004820152602d60248201527f455243313936373a206e657720696d706c656d656e746174696f6e206973206e60448201526c1bdd08184818dbdb9d1c9858dd609a1b6064820152608401610461565b600080516020611dc083398151915280546001600160a01b0319166001600160a01b0392909216919091179055565b611368836115b9565b6000825111806113755750805b15610f10576106e983836115f9565b60008082516041036113ba5760208301516040840151606085015160001a6113ae8782858561161e565b945094505050506113c2565b506000905060025b9250929050565b60008160048111156113dd576113dd611c6c565b036113e55750565b60018160048111156113f9576113f9611c6c565b036114465760405162461bcd60e51b815260206004820152601860248201527f45434453413a20696e76616c6964207369676e617475726500000000000000006044820152606401610461565b600281600481111561145a5761145a611c6c565b036114a75760405162461bcd60e51b815260206004820152601f60248201527f45434453413a20696e76616c6964207369676e6174757265206c656e677468006044820152606401610461565b60038160048111156114bb576114bb611c6c565b036107cb5760405162461bcd60e51b815260206004820152602260248201527f45434453413a20696e76616c6964207369676e6174757265202773272076616c604482015261756560f01b6064820152608401610461565b600054610100900460ff1661153a5760405162461bcd60e51b815260040161046190611be7565b610971336110a7565b600054610100900460ff16610ece5760405162461bcd60e51b815260040161046190611be7565b600054610100900460ff166115915760405162461bcd60e51b815260040161046190611be7565b60cb61159d8382611cd0565b5060cc6115aa8282611cd0565b5050600060c981905560ca5550565b6115c2816112c3565b6040516001600160a01b038216907fbc7cd75a20ee27fd9adebab32041f755214dbc6bffa90cc0225b39da2e5c2d3b90600090a250565b6060610e628383604051806060016040528060278152602001611de0602791396116e2565b6000807f7fffffffffffffffffffffffffffffff5d576e7357a4501ddfe92f46681b20a083111561165557506000905060036116d9565b6040805160008082526020820180845289905260ff881692820192909252606081018690526080810185905260019060a0016020604051602081039080840390855afa1580156116a9573d6000803e3d6000fd5b5050604051601f1901519150506001600160a01b0381166116d2576000600192509250506116d9565b9150600090505b94509492505050565b6060600080856001600160a01b0316856040516116ff9190611d90565b600060405180830381855af49150503d806000811461173a576040519150601f19603f3d011682016040523d82523d6000602084013e61173f565b606091505b50915091506117508683838761175a565b9695505050505050565b606083156117c95782516000036117c2576001600160a01b0385163b6117c25760405162461bcd60e51b815260206004820152601d60248201527f416464726573733a2063616c6c20746f206e6f6e2d636f6e74726163740000006044820152606401610461565b5081610a03565b610a0383838151156117de5781518083602001fd5b8060405162461bcd60e51b81526004016104619190611dac565b6000806000806060858703121561180e57600080fd5b84359350602085013567ffffffffffffffff8082111561182d57600080fd5b818701915087601f83011261184157600080fd5b81358181111561185057600080fd5b88602082850101111561186257600080fd5b95986020929092019750949560400135945092505050565b80356001600160a01b038116811461189157600080fd5b919050565b6000602082840312156118a857600080fd5b610e628261187a565b6000602082840312156118c357600080fd5b5035919050565b634e487b7160e01b600052604160045260246000fd5b600082601f8301126118f157600080fd5b813567ffffffffffffffff8082111561190c5761190c6118ca565b604051601f8301601f19908116603f01168101908282118183101715611934576119346118ca565b8160405283815286602085880101111561194d57600080fd5b836020870160208301376000602085830101528094505050505092915050565b6000806040838503121561198057600080fd5b6119898361187a565b9150602083013567ffffffffffffffff8111156119a557600080fd5b6119b1858286016118e0565b9150509250929050565b600080600080608085870312156119d157600080fd5b6119da8561187a565b935060208501359250604085013567ffffffffffffffff8111156119fd57600080fd5b611a09878288016118e0565b949793965093946060013593505050565b60005b83811015611a35578181015183820152602001611a1d565b50506000910152565b60008151808452611a56816020860160208601611a1a565b601f01601f19169290920160200192915050565b60ff60f81b881681526000602060e081840152611a8a60e084018a611a3e565b8381036040850152611a9c818a611a3e565b606085018990526001600160a01b038816608086015260a0850187905284810360c0860152855180825283870192509083019060005b81811015611aee57835183529284019291840191600101611ad2565b50909c9b505050505050505050505050565b83815260406020820152816040820152818360608301376000818301606090810191909152601f909201601f1916010192915050565b6020808252602c908201527f46756e6374696f6e206d7573742062652063616c6c6564207468726f7567682060408201526b19195b1959d85d1958d85b1b60a21b606082015260800190565b6020808252602c908201527f46756e6374696f6e206d7573742062652063616c6c6564207468726f7567682060408201526b6163746976652070726f787960a01b606082015260800190565b600060208284031215611be057600080fd5b5051919050565b6020808252602b908201527f496e697469616c697a61626c653a20636f6e7472616374206973206e6f74206960408201526a6e697469616c697a696e6760a81b606082015260800190565b600181811c90821680611c4657607f821691505b602082108103611c6657634e487b7160e01b600052602260045260246000fd5b50919050565b634e487b7160e01b600052602160045260246000fd5b601f821115610f1057600081815260208120601f850160051c81016020861015611ca95750805b601f850160051c820191505b81811015611cc857828155600101611cb5565b505050505050565b815167ffffffffffffffff811115611cea57611cea6118ca565b611cfe81611cf88454611c32565b84611c82565b602080601f831160018114611d335760008415611d1b5750858301515b600019600386901b1c1916600185901b178555611cc8565b600085815260208120601f198616915b82811015611d6257888601518255948401946001909101908401611d43565b5085821015611d805787850151600019600388901b60f8161c191681555b5050505050600190811b01905550565b60008251611da2818460208701611a1a565b9190910192915050565b602081526000610e626020830184611a3e56fe360894a13ba1a3210667c828492db98dca3e2076cc3735a920a3ca505d382bbc416464726573733a206c6f772d6c6576656c2064656c65676174652063616c6c206661696c6564a2646970667358221220fdaf7f729b2bd0657ccd158cc72c1a2ca82bdae56eb149bfb5c0d6a7aaa09dee64736f6c63430008140033",
  "linkReferences": {},
  "deployedLinkReferences": {}
}